:020000040C00EE
:100000000088FE1F010200089902000899020008FA
:1000100099020008990200089902000800000000F7
:10002000000000000000000000000000990200082D
:10003000990200080000000099020008A52C0008A1
:100040009902000899020008990200084D870008EB
:100050001187000899020008990200089902000817
:1000600099020008000000000000000000000000ED
:100070009902000800000000990200089902000897
:1000800099020008990200089902000899020008E4
:1000900099020008990200089902000899020008D4
:1000A00099020008990200089902000899020008C4
:1000B00099020008990200089902000899020008B4
:1000C00099020008990200089902000899020008A4
:1000D0009902000899020008990200089902000894
:1000E0009902000899020008990200089902000884
:1000F0009902000899020008990200089902000874
:100100009902000899020008990200089902000863
:100110009902000899020008990200089902000853
:10012000A98600088987000899020008C986000886
:100130009902000899020008990200089902000833
:100140009902000899020008990200089902000823
:100150009902000899020008990200089902000813
:10016000000000000000000000000000000000008F
:1001700099020008990200089902000899020008F3
:1001800099020008990200089902000899020008E3
:1001900099020008990200089902000899020008D3
:1001A00099020008990200089902000899020008C3
:1001B00099020008990200089902000899020008B3
:1001C00099020008990200089902000899020008A3
:1001D0009902000899020008990200080000000036
:1001E00099020008013F00089902000899020008DE
:1001F0006548000800000000113F000800000000F2
:10020000DFF874D01D4880471D4C1E4DAC4209DA02
:1002100021686268A368043BA2BFC858D050FAE7BF
:100220000C34F3E7184B194CA34208DA19685A68E2
:100230000020043AA4BF8850FBE70833F4E71448D1
:1002400080471448804700005C8F000C0088FE1F28
:10025000100300005C8F000C0088FE1F00000000EF
:10026000108BFE1FF06C000000000020000000005A
:1002700000000020A03000000088FE1F9D02000842
:1002800048020008600200086002000878020008C6
:10029000A18A00080D840008FEE7000098B500AFB1
:1002A000054A4FF0005314460FCB84E80F0007F0C7
:1002B00091FE07F0F9FE98BDC4FF032080B584B01D
:1002C00000AF2F4BDB6803F48033002B3ED02D4B67
:1002D000DB6803F00103002B02D02B4BFB6002E034
:1002E00007F0D8FEF860274B1B6803F00403002BCF
:1002F00020D0244B9B6803F070631B0E0133BB605E
:10030000204B9B6803F4FE431B0A01337B601D4BAB
:100310009B6803F4FE031B0C01333B60BB683A6827
:1003200002FB03F3FA68B2FBF3F37A6802FB03F310
:10033000FB600DE0134B9B6803F07F0301333B60D0
:10034000FA683B68B2FBF3F3FB6001E00E4BFB6025
:100350000B4BDB68DBB20133FA68B2FBF3F3FB60F3
:10036000074B1B6903F001030133FA68B2FBF3F397
:10037000FB60064AFB6813601037BD4680BD00BFB6
:10038000004600501047005000366E01C0FF0320A9
:1003900080B582B000AF78607B68074A934207D18E
:1003A0004FF4803000F0CCFA4FF4803000F044F984
:1003B0000837BD4680BD00BF0040044080B485B012
:1003C00000AFF8600B467A60FB72FB7A9B08DBB2E9
:1003D0001846FB7A9B08DBB21A46FB68043253F8D6
:1003E0002220FB7A03F00303DB001946F8238B403D
:1003F000DB4302EA0301FB68021D43F82210FB689D
:100400005A6FFB7A5B00194603238B40DB431A408B
:10041000FB685A67FB68374A934203D0FB68364A49
:1004200093420AD1FB681A6EFB7A012101FA03F3A9
:10043000DB431A40FB681A663CE07B685A68FB7A2B
:100440009A40FB685A60FB7ADB08DBB21846FB7AFD
:10045000DB08DBB21A46FB68103253F82220FB7A25
:1004600003F007039B00194607238B40DB4302EA96
:100470000301FB6800F1100243F82210FB7ADB084D
:10048000DBB21846FB7ADB08DBB21A46FB68103297
:1004900053F822207B681B7A1946FB7A03F0070386
:1004A0009B0001FA03F342EA0301FB6800F110022A
:1004B00043F82210FB7A9B08DBB21846FB7A9B08B4
:1004C000DBB21A46FB68043253F822207B681B78A3
:1004D0001946FB7A03F00303DB0001FA03F342EA57
:1004E0000301FB68021D43F822101437BD465DF876
:1004F000047B7047008E0248008F024880B400AF32
:10050000034B1B681846BD465DF8047B704700BF6F
:10051000C0FF032080B584B000AF7860FFF7CEFE47
:100520000B4B1B680B4AA2FB03239A0C7B6802FB54
:1005300003F37B600023FB6003E000BFFB68013333
:10054000FB60FA687B689A42F7D31037BD4680BDDE
:10055000C0FF032083DE1B43B0B584B002AF7860D8
:10056000002000F0B9F800F08BFA7B68DB79002BF3
:100570000AD000F0C3FA00BF00F0AEFA034683F0E1
:100580000103DBB2002BF7D17B685B7A184600F0E1
:100590001DF97B681B7A184600F04CFA7B681B7CBF
:1005A000184600F031F97B685B7C184600F054F97E
:1005B0007B689B7C184600F03BF97B68DB7C184627
:1005C00000F05EF97B689B79002B0AD000F0C8FA36
:1005D00000BF00F0EDFA034683F00103DBB2002B0D
:1005E000F7D17B68DB78002B02D100F005FB14E02B
:1005F00000F0F2FA7B6899887B68DA787B685B7830
:100600001D467B681B781C467B689B7800930846D8
:1006100011462A46234600F0FFFA7B68DB68B3F5F3
:10062000803F03D14FF4803000F056F8FFF746FECC
:100630000837BD46B0BD00BF80B485B000AF78605C
:100640007B681B0FFB607B6823F07043BB60FA681C
:1006500013465B0013449B001A46044B1344BA68CC
:100660001A601437BD465DF8047B7047144400508F
:1006700080B485B000AF78607B681B0FFB607B683F
:1006800023F07043BB60FA6813465B0013449B0081
:100690001A46084B13441A68BB681340002B14BF5A
:1006A00001230023DBB218461437BD465DF8047BF6
:1006B000704700BF0C44005080B500AFFFF71EFF2D
:1006C0000246044B5B6903F0010322FA03F3184668
:1006D00080BD00BF0046005080B483B000AF78609A
:1006E0000649064BDB6823F480327B681343CB60FA
:1006F0000C37BD465DF8047B704700BF00460050D4
:1007000080B483B000AF78600649064B9B6923F440
:1007100080327B6813438B610C37BD465DF8047BE8
:10072000704700BF0046005080B483B000AF7860CF
:100730000649064B5B6A23F440327B6813434B62E5
:100740000C37BD465DF8047B704700BF0046005083
:1007500080B483B000AF0346FB80FB88002B08D138
:100760000A4A0A4BDB6823F4807323F00103D36049
:1007700007E0064A054BDB6843F4807343F001034E
:10078000D3600C37BD465DF8047B704710470050BE
:1007900080B483B000AF0346FB7100BF094BD3F8B0
:1007A000C43003F00803002BF8D10749064BDB687F
:1007B00023F04002FB791343CB600C37BD465DF854
:1007C000047B7047004000500043005080B483B069
:1007D00000AF0346FB7100BF094BD3F8C43003F0F0
:1007E0000803002BF8D10749064BDB6823F0800291
:1007F000FB791343CB600C37BD465DF8047B704733
:10080000004000500043005080B483B000AF7860D7
:100810000649064BDB6823F0FF027B68013B13436C
:10082000CB600C37BD465DF8047B70470046005036
:1008300080B483B000AF78600649064B1B6A23F092
:1008400001027B68013B13430B620C37BD465DF828
:10085000047B70470046005080B483B000AF7860DE
:100860000649064B1B6923F001027B68013B1343D9
:100870000B610C37BD465DF8047B704700460050A5
:1008800080B483B000AF78600649064B5B6923F003
:1008900001027B68013B13434B610C37BD465DF899
:1008A000047B70470046005080B483B000AF78608E
:1008B0000649064B9B6923F007027B68013B134303
:1008C0008B610C37BD465DF8047B704700460050D5
:1008D00080B483B000AF78600649064BDB6923F033
:1008E0003F027B68013B1343CB610C37BD465DF88B
:1008F000047B70470046005080B483B000AF78603E
:100900000649064B5B6A23F0FF027B68013B1343F9
:100910004B620C37BD465DF8047B704700460050C3
:1009200080B483B000AF0346FB71044AFB79536087
:100930000C37BD465DF8047B704700BF0046005091
:1009400080B485B000AF78607B681B0FFB607B686C
:1009500023F07043BB60FA6813465B0013449B00AE
:100960001A46044B1344BA681A601437BD465DF842
:10097000047B70474846005080B485B000AF786073
:100980007B681B0FFB607B6823F07043BB60FA68D9
:1009900013465B0013449B001A46084B13441A6825
:1009A000BB681340002B14BF01230023DBB21846A1
:1009B0001437BD465DF8047B704700BF40460050C9
:1009C00080B483B000AF78603960194A184B5B6916
:1009D00043F001035361164A154B5B6943F0100362
:1009E000536113493B68013B1A027B68013B1B06BC
:1009F00013434B610E4A0E4B5B6943F04003536156
:100A00000B4A0B4B5B6923F010035361084A084BF8
:100A10005B6943F48023536100BF054B1B6903F0FE
:100A20000403002BF9D00C37BD465DF8047B7047FA
:100A30001047005080B582B000AF0346FB710F4AEB
:100A40000E4B5B6843F480135360FB79012B0ED18E
:100A50000A4A0A4B5B6823F4801353606420FFF753
:100A600059FD064A054B5B6843F40023536064203C
:100A7000FFF750FD0837BD4680BD00BF104700504E
:100A800080B400AF124B1B6803F00103002B09D1A7
:100A90000F4B01225A6000BF0D4B1B6803F001038E
:100AA000002BF9D00B4B1B6803F40073002B0AD00A
:100AB000084B4FF400729A6000BF064B1B6803F4AA
:100AC0000073002BF9D1BD465DF8047B704700BF71
:100AD000004200500044005080B400AF064B1B6839
:100AE00003F00803002B0CBF01230023DBB21846E0
:100AF000BD465DF8047B70470043005080B400AFF2
:100B000000BF154BD3F8C43003F08003002BF8D19D
:100B1000124A124BDB6923F03003D36100BF0E4B46
:100B2000D3F8C43003F00803002BF8D10B4A0B4B69
:100B3000DB6843F00803D36000BF074BD3F8C43031
:100B400003F00403002BF8D1044B08229A60BD4641
:100B50005DF8047B704700BF004000500043005028
:100B6000B0B500AF0F4A0F4B5B6823F4803353607E
:100B70000D4D0D4B5B6823F4702424F0300407F016
:100B800089FA0246094BA3FB02231B0D013B1B0400
:100B900023436B60034A034B5B6823F400335360C9
:100BA000B0BD00BF10470050004700506BCA5F6BDC
:100BB00080B400AF074B1B6803F46073B3F5607F2C
:100BC0000CBF01230023DBB21846BD465DF8047B51
:100BD000704700BF1047005080B400AF054A054B76
:100BE0005B6823F4803323F002035360BD465DF855
:100BF000047B70471047005080B400AF054A054B96
:100C00005B6843F4803343F002035360BD465DF8F4
:100C1000047B70471047005080B586B000AFBA60C3
:100C20007B600346FB810B467B73FB891846FFF70D
:100C30008FFD7B7B012B40F08480FB89002B09D149
:100C400007F028FA02464B4BA3FB02239B0C9B05A3
:100C50007B6102E04FF0C0637B617B697A6802FBD5
:100C600003F2BB68B2FBF3F37B617B69424AA2FBF0
:100C700003231B099B0D3B61404A404B5B6843F0DB
:100C8000010353603D4A3D4B5B6843F010035360E2
:100C90003A493A4B9A683A4B13407A68013A120241
:100CA0001A433B69013B1B041A43BB68013B1B060B
:100CB00013438B60314A314B5B6843F04003536010
:100CC0002E4A2E4B5B6823F0100353602B4A2B4BAC
:100CD0005B6843F48023536000BF284B1B6803F01C
:100CE0000403002BF9D0254A244B5B6823F0010351
:100CF000536000BF214B1B6803F00103002BF9D1A7
:100D00007B69204AA2FB03235B099B0D3B613A6A86
:100D10003B699A4202D2386900F038F87B695B0877
:100D2000194AA2FB03235B099B0D3B613A6A3B69AD
:100D30009A4202D2386900F029F8386A00F026F8A1
:100D400015E00E490D4B9B6823F07F023B6A013B87
:100D500013438B60094A094B5B6843F001035360FE
:100D600000BF064B1B6803F00103002BF9D01837B6
:100D7000BD4680BD83DE1B43ABAAAAAA1047005024
:100D8000FF8080F089888888B7600BB680B582B014
:100D900000AF78600749074B9B6823F4FE027B682D
:100DA000013B1B0413438B603220FFF7B3FB083772
:100DB000BD4680BD1047005080B483B000AF78605E
:100DC0007B68DB6843F480727B68DA600C37BD4671
:100DD0005DF8047B704700BF80B582B000AF7860DB
:100DE0007B68124A934211D0104A934203D8104AAA
:100DF000934207D016E00F4A93420BD00E4A93421B
:100E00000CD00FE00420FFF717FC0BE00820FFF7E1
:100E100013FC07E01020FFF70FFC03E00748FFF783
:100E20000BFC00BF0837BD4680BD00BF000001407D
:100E300000C0004000400140004000480100001098
:100E400080B582B000AF78607B68124A934211D0BF
:100E5000104A934203D8104A934207D016E00F4A33
:100E600093420BD00E4A93420CD00FE00420FFF7C0
:100E700067FD0BE00820FFF763FD07E01020FFF798
:100E80005FFD03E00748FFF75BFD00BF0837BD4685
:100E900080BD00BF0000014000C000400040014094
:100EA000004000480100001080B582B000AF7860BB
:100EB0001020FFF735FD7868FFF7C2FF7868FFF76D
:100EC0008BFF0837BD4680BD80B584B000AF786029
:100ED0000B46FB707868FFF7E7FF7868FFF76CFF59
:100EE0007B681B68FB60FB6823F44043FB60FB7876
:100EF0009B03FA681343FB607B68FA681A6010373B
:100F0000BD4680BD80B483B000AF786039603B6877
:100F10001A687B685A613B685B79C3F34013DBB2A4
:100F20001A057B685A603B681B79C3F30303DBB285
:100F30001A467B685A623B685B79C3F30303DBB2F2
:100F40001A467B681A623B685B79C3F30013DBB215
:100F50001A467B689A613B681B79C3F30313DBB2C3
:100F60001A467B68DA620C37BD465DF8047B704731
:100F700080B487B000AF78600B46FB701346BB703F
:100F80007B68D3F8A830FB60FB78092B2CD801A232
:100F900052F823F0BD0F0008BD0F0008C70F00086E
:100FA000C70F0008E90F0008E90F0008E90F000863
:100FB000E90F0008D10F0008DD0F000803233B6193
:100FC00000237B6116E00C233B6102237B6111E06F
:100FD0004FF440733B6108237B610BE04FF44063A7
:100FE0003B610A237B6105E04FF440533B610C23D6
:100FF0007B6100BF3B69DB43FA681340FB60BA7852
:101000007B6902FA03F3FA681343FB607B68FA68B2
:10101000C3F8A8201C37BD465DF8047B704700BFAD
:1010200080B483B000AF78607B68D3F86033184633
:101030000C37BD465DF8047B704700BF80B483B0B9
:1010400000AF78607B68D3F8E83218460C37BD46AD
:101050005DF8047B704700BF80B483B000AF786058
:101060007B68D3F8F03218460C37BD465DF8047B38
:10107000704700BF80B483B000AF78607B68D3F85E
:10108000F83218460C37BD465DF8047B704700BF48
:1010900080B483B000AF78607B68D3F80033184623
:1010A0000C37BD465DF8047B704700BF80B483B049
:1010B00000AF78607B68D3F8083318460C37BD461C
:1010C0005DF8047B704700BF80B582B000AF7860E8
:1010D000786800F003F80837BD4680BD80B582B05F
:1010E00000AF78607B680B4A934206D10A48FFF74D
:1010F00027FC0948FFF7A0FA05E00848FFF720FCA5
:101100000648FFF799FA7B680122C3F8982308374D
:10111000BD4680BD0040015010000020200000208E
:1011200080B584B000AF78607B68334A934225D1A4
:101130003248FFF79DFA0346002B14BF012300231A
:10114000DBB283F00103DBB2FB73FB7B03F0010333
:10115000FB73FB7B002B0AD02848FFF70DFC0346EE
:1011600083F00103DBB2002B01D0012300E0002358
:10117000FB73FB7B03F00103FB7324E02048FFF7C4
:1011800077FA0346002B14BF01230023DBB283F060
:101190000103DBB2FB73FB7B03F00103FB73FB7BFF
:1011A000002B0AD01648FFF7E7FB034683F0010344
:1011B000DBB2002B01D0012300E00023FB73FB7B9B
:1011C00003F00103FB73FB7B002B0FD0FB7B002B99
:1011D00006D07B68D3F89833002B01D0012300E0C0
:1011E0000023FB73FB7B03F00103FB73FB7B1846BF
:1011F0001037BD4680BD00BF0040015010000020E8
:101200002000002080B483B000AF78600B46FB70F4
:101210001346BB707B681F4A93421BD11E481E4B6E
:101220009A68FB789B0019460F238B40DB431A40DA
:10123000BB78F97889008B40134383601649164BBD
:101240001A69FB7803F00703012000FA03F3134344
:101250000B6119E01048104BDA68FB789B001946C7
:101260000F238B40DB431A40BB78F97889008B4011
:101270001343C3600849084B1A69FB784FF4807028
:1012800000FA03F313430B610C37BD465DF8047B92
:10129000704700BF004001500049005080B483B047
:1012A00000AF78600B46FB707B68D3F8A023FB7817
:1012B00022FA03F303F00103002B14BF01230023E0
:1012C000DBB218460C37BD465DF8047B704700BFA3
:1012D00080B586B000AFF8600B467A60FB72F868A4
:1012E000FFF71EFF0346002B00F0F181FB7AF86840
:1012F0001946FFF7D3FF034683F00103DBB2002B4F
:1013000000F0E281FB7A7A685268F968582000FBA5
:1013100003F30B441A60FB7A7A689268F9685820E4
:1013200000FB03F30B4408331A60FB7A7A68D26837
:101330001046FA68582101FB03F313441033186078
:10134000FB7A7A68128B1046FA68582101FB03F386
:10135000134418335860FB7A7A681268F968582089
:1013600000FB03F30B4418331A60FB7A7A68D27ED1
:1013700042F44062F968582000FB03F30B44403309
:101380001A60FB68B14A934216D1FB7A012B13D83D
:10139000FB7A7A681269F968582000FB03F30B4462
:1013A00048331A60FB7A7A685269F968582000FB62
:1013B00003F30B4450331A607B681B8C002B4FD116
:1013C0007B689B7803F07003DBB2102B06D07B6840
:1013D0009B7803F07003DBB2302B41D1FB689B4A52
:1013E000934206D17B6893F8223003F00703BB7564
:1013F00005E07B6893F8223003F00303BB757B683C
:1014000093F822301B097B75FB7AFA7AF968582029
:1014100000FB02F20A4440325168BA7DD2020A430C
:10142000F968582000FB03F30B4440335A60BA7D3F
:101430007B7DF86811461A46FFF7E4FEFB7AFA7ADC
:10144000F968582000FB02F20A444032126822F484
:101450008062F968582000FB03F30B4440331A60A4
:101460007B689B8B002B4CD17B689B7803F07003CF
:10147000DBB2202B06D07B689B7803F07003DBB2D5
:10148000302B3ED1FB68714A934205D17B689B7F2C
:1014900003F00703BB7504E07B689B7F03F0030345
:1014A000BB757B689B7F1B097B75FB7AFA7AF968B1
:1014B000582000FB02F20A4440325168BA7DD20142
:1014C0000A43F968582000FB03F30B4440335A6089
:1014D000BA7D7B7DF86811461A46FFF793FEFB7ACA
:1014E000FA7AF968582000FB02F20A444032126886
:1014F00022F40062F968582000FB03F30B444033E8
:101500001A60FB7AF86819461F2200F00FF97B6811
:101510009B7E082B00F2D48001A252F823F000BF7A
:10152000C1160008451500086B1500089115000844
:10153000B7150008DD150008271600085116000829
:101540009B160008FB7AFA7AF968582000FB02F231
:101550000A444032126842F00042F968582000FB09
:1015600003F30B4440331A60ABE0FB7AFA7AF96874
:10157000582000FB02F20A444032126842F08042D6
:10158000F968582000FB03F30B4440331A6098E0DD
:10159000FB7AFA7AF968582000FB02F20A444032DA
:1015A000126842F04042F968582000FB03F30B44F4
:1015B00040331A6085E0FB7AFA7AF968582000FB1C
:1015C00002F20A441832126842F00062F9685820A8
:1015D00000FB03F30B4418331A6072E0FB7AFA7ACB
:1015E000F968582000FB02F20A444032126842F0C7
:1015F0008042F968582000FB03F30B4440331A6023
:10160000FB7AFA7AF968582000FB02F20A44183291
:10161000126842F00062F968582000FB03F30B44A3
:1016200018331A604DE0FB7AFA7AF968582000FB0B
:1016300002F20A441832126842F08052F9685820C7
:1016400000FB03F30B4418331A603AE000400150EA
:10165000FB7AFA7AF968582000FB02F20A44403219
:10166000126842F00042F968582000FB03F30B4473
:1016700040331A60FB7AFA7AF968582000FB02F2CC
:101680000A441832126842F08052F968582000FB70
:1016900003F30B4418331A6013E0FB7AFA7AF96803
:1016A000582000FB02F20A441832126842F0C0527D
:1016B000F968582000FB03F30B4418331A6000E06C
:1016C00000BF0023FB7504E00223FB7501E001234A
:1016D000FB75FB7D18461837BD4680BD80B487B0CA
:1016E00000AFF8600B467A60FB7200237B6114E068
:1016F0007B697A6822FA03F303F00103002B09D017
:101700007B695A00FB7A40F201119940FB68C432B0
:1017100043F822107B6901337B617B69042BE7D995
:101720001C37BD465DF8047B704700BF80B487B0AE
:1017300000AFF8600B467A60FB7200237B6113E018
:101740007B697A6822FA03F303F00103002B08D0C7
:101750007B695A00FB7A01219940FB68CE3243F83D
:1017600022107B6901337B617B69042BE8D91C372C
:10177000BD465DF8047B704780B485B000AFF8606B
:101780000B467A60FB72FB68094A934205D1FB7AEB
:1017900008497A6841F8232004E0FB7A06497A6810
:1017A00041F823201437BD465DF8047B704700BF25
:1017B00000400150CCF0FE1FECF0FE1F80B588B059
:1017C00000AF78607B68824A934202D1814BBB6153
:1017D00001E0814BBB617868FFF722FC7861002350
:1017E000FB617B6903F01003002B2BD07868FFF7B7
:1017F0005DFC786121E00122FB6902FA03F33B61A1
:101800007A693B691340002B14D0FB69DBB278681E
:1018100019461022FFF78AFFFB699B00BA6913443F
:101820001B68FB60FB68002B03D0FB681020984707
:1018300007E006E0FB690133FB617B69002BDAD12D
:10184000C3E0C2E07B6903F00103002B2BD0786872
:10185000FFF7F4FB786121E00122FB6902FA03F350
:101860003B617A693B691340002B14D0FB69DBB202
:10187000786819460F22FFF759FFFB699B00BA6988
:1018800013441B68FB60FB68002B03D0FB6801203E
:10189000984707E006E0FB690133FB617B69002B99
:1018A000DAD192E091E07B6903F00203002B2BD0A8
:1018B0007868FFF7D1FB786121E00122FB6902FA29
:1018C00003F33B617A693B691340002B14D0FB6939
:1018D000DBB2786819460E22FFF728FFFB699B00F0
:1018E000BA6913441B68FB60FB68002B03D0FB68DC
:1018F0000220984707E006E0FB690133FB617B6942
:10190000002BDAD161E060E07B6903F00403002B77
:101910002BD07868FFF7AEFB786121E00122FB69EC
:1019200002FA03F33B617A693B691340002B14D040
:10193000FB69DBB2786819460422FFF7F7FEFB6902
:101940009B00BA6913441B68FB60FB68002B03D043
:10195000FB680420984707E006E0FB690133FB6160
:101960007B69002BDAD130E02FE07B6903F00803BC
:10197000002B2AD07868FFF78BFB786121E00122E9
:10198000FB6902FA03F33B617A693B691340002B60
:1019900014D0FB69DBB2786819460822FFF7C6FE4F
:1019A000FB699B00BA6913441B68FB60FB68002B52
:1019B00003D0FB680820984707E006E0FB69013385
:1019C000FB617B69002BDAD1FFE72037BD4680BD84
:1019D00000400150CCF0FE1FECF0FE1F80B584B03B
:1019E00000AFF8600B467A60FB72F868FEF7D0FC37
:1019F000FB681A68FB7A9B0019460F238B40DB4378
:101A00001A407B681B68F97A89008B401A43FB688F
:101A10001A60FA7A7B685968FB68043243F822102E
:101A20001037BD4680BD00BF80B483B000AF786082
:101A30000B46FB701346BB70FA78BB7803F00303C8
:101A4000D9B27B68083201F00301090153F8220082
:101A500020F03000014343F822100C37BD465DF8FA
:101A6000047B704780B483B000AF78607B681B68EC
:101A70007A68126802F58052126842F0010203F59A
:101A800080531A6000BF7B681B6803F580531B6896
:101A900003F00103002BF6D10C37BD465DF8047B43
:101AA000704700BFB0B485B000AFF860C7E900234D
:101AB000FB681968D7E900231C00002523460B6446
:101AC000FB681B683A685A641437BD46B0BC70475F
:101AD00080B400AF064B1A68064B1B6903F0010384
:101AE00002FA03F31846BD465DF8047B704700BF59
:101AF000C0FF03200046005080B500AFFFF7E8FFAD
:101B000003465B08184680BD80B483B000AF7860A0
:101B10007A6844F245031340002B14BF01230023CD
:101B2000DBB218460C37BD465DF8047B704700BF3A
:101B300080B483B000AF78607A6842F2BA73134021
:101B4000002B14BF01230023DBB218460C37BD461F
:101B50005DF8047B704700BF80B584B000AF78604B
:101B6000786800F07DF97868FFF77CFF786800F00E
:101B700027F90346FB737B68D3E902237868FFF7F4
:101B800091FF7B681B684FF480621A607B681B685A
:101B900080229A617B681B6803F5805318334FF0ED
:101BA00008721A607B681B687A68126802F58052B6
:101BB000126842F0800203F580531A60786800F0E2
:101BC0001FF8786800F074F87B681B6803F5805391
:101BD00014334FF0FF321A607B681B686FF07C4251
:101BE000C3F810217B681B686FF07C42C3F80C219E
:101BF0007B6800221A62FB7B18461037BD4680BD09
:101C000080B485B000AF78600023FB6037E07B686C
:101C10001A69FB685B0113444FF000421A607B684D
:101C20001A69FB685B01134444F2F4525A607B6802
:101C30001A69FB685B0113447A689169FA6840F29B
:101C4000F45000FB02F20A449A60FB680133BB6067
:101C50007B6893F824301A46BB689A4201D100236E
:101C6000BB607B681A69FB685B0113447A68116981
:101C7000BA6852010A44DA60FB680133FB607B6892
:101C800093F824301A46FB689A42C0D87B681B68D8
:101C90007A68126903F580530C331A607B6800225E
:101CA00083F827201437BD465DF8047B704700BFDA
:101CB00080B485B000AF78600023FB602EE07B68C5
:101CC0005A69FB685B011344204A1A607B685A69B1
:101CD000FB685B0113447A68D169FA6840F2F450FA
:101CE00000FB02F20A449A60FB680133BB607B6828
:101CF00093F825301A46BB689A4201D10023BB6095
:101D00007B685A69FB685B0113447A685169BA6859
:101D100052010A44DA60FB680133FB607B6893F888
:101D200025301A46FB689A42C9D87B681B687A68D6
:101D3000526903F5805310331A607B68002283F8E0
:101D400026201437BD465DF8047B70470000103034
:101D500080B485B000AF78600023FB607B681A69AF
:101D60007B6893F827305B0113441B68BB60BB683A
:101D7000002B02DA0023FB6018E0BB6803F4004389
:101D8000002B09D1BB6803F40073002B04D0BB689F
:101D900003F48073002B03D14FF0FF33FB6005E0A9
:101DA000BA68064B13401B0C043BFB60FB681846EB
:101DB0001437BD465DF8047B704700BF0000FF3F4D
:101DC00080B586B000AF7860FFF796FE38610023DB
:101DD000FB757B681B681033FB603B691A4A9342B2
:101DE00003D8FB6808221A6029E03B69174A93422E
:101DF00003D8FB680C221A6021E03B69144A934225
:101E000003D8FB6800221A6019E03B69114A93422B
:101E100003D8FB6804221A6011E03B690E4A934222
:101E200003D8FB6810221A6009E03B690B4A934211
:101E300003D8FB6814221A6001E00223FB75FB7DC6
:101E400018461837BD4680BDC00E160200879303A2
:101E500000E1F50580D1F00800C2EB0B80B2E60E80
:101E600080B582B000AF78600420FEF759FD0448C9
:101E7000FEF766FD0248FEF7DFFB0837BD4680BD72
:101E80000400002080B487B000AFF8607B600B4690
:101E9000FB721346BB72FB681B68FA681268126912
:101EA00002F03C01FA7AD2021143BA7A92010A4353
:101EB00042F001021A6100237B61FB681B681B6909
:101EC00003F00103002B07D1FB681B685B699AB222
:101ED0007B681A80002308E07B6901337B617B69A2
:101EE0004FF6FE729342E8D9022318461C37BD46CE
:101EF0005DF8047B704700BF80B485B000AF7860A8
:101F0000084611461A460346FB700B46BB70134643
:101F10003B807B681B683A885A617B681B687A68DB
:101F20001268126902F03C01FA78D2021143BA78C1
:101F300092010A4342F003021A610023FB607B68AE
:101F40001B681B6903F00103002B01D1002308E08B
:101F5000FB680133FB60FB684FF6FE729342EED9DB
:101F6000022318461437BD465DF8047B704700BF56
:101F700080B582B000AF786039607B681B687A6892
:101F80001268D16B3A68120CD2430A40DA633B689C
:101F9000C3F30E033B603868FFF7B6FD0346002B22
:101FA00003D03B6843F480333B603868FFF7C0FDE3
:101FB0000346002B03D03B6843F400433B607B683F
:101FC00019687B681B6803F580531C331A683B68EB
:101FD0001A4301F580531C331A600837BD4680BD93
:101FE00080B483B000AF786039607B681B687A6822
:101FF0001268D16B3A68120C0A43DA633B68C3F388
:102000000E033B607B6819687B681B6803F580538F
:102010001C331A683B68DB431A4001F580531C33BC
:102020001A600C37BD465DF8047B704780B483B0FE
:1020300000AF786039607B681B6803F58053143308
:102040001B6803F48033002B03D03B6843F48033D8
:102050003B607B681B6803F5805314331B6803F4F3
:102060000043002B03D03B6843F400433B607B6894
:102070001B6803F5805314333A681A600C37BD4669
:102080005DF8047B704700BF80B483B000AF786018
:102090007B681A697B6893F827305B0113447A6880
:1020A00011697A6892F8272052010A44126842F0B6
:1020B00000421A607B6893F827300133DAB27B68FC
:1020C00083F827207B6893F827207B6893F82430D7
:1020D0009A4203D17B68002283F827200C37BD4643
:1020E0005DF8047B704700BF80B483B000AF7860B8
:1020F0007B6893F826207B6883F828207B685A69E0
:102100007B6893F826305B011A447B6859697B68C9
:1021100093F826305B010B441B6843F0004343F403
:10212000400313607B6893F826300133DAB27B6892
:1021300083F826207B6893F826207B6893F8253067
:102140009A4203D17B68002283F826207B68002214
:102150001A620C37BD465DF8047B704780B483B0CB
:1021600000AF78600B46FB701346BB707B685A6FFC
:10217000FB785B00194603238B40DB431A407B68E6
:102180005A677B685A6FBB78F97849008B401A43CD
:102190007B685A670C37BD465DF8047B704700BF0B
:1021A00080B582B000AF78603960786800F092F84E
:1021B0003B681B79002B06D13B681B687868194681
:1021C000022200F0D3F87B680E4A5A637B684FF412
:1021D000A2629A633B681B79002B07D13B685B794D
:1021E00043F00B03DBB21A467B68DA637B684FF07F
:1021F000FF32DA643B68DB881A467B681A6408376A
:10220000BD4680BD02013F0780B483B000AF786057
:1022100039607B68DB6B23F47F027B68DA637B6861
:10222000DA6B3B681A437B68DA630C37BD465DF8AE
:10223000047B704780B485B000AF78607B68D3F8CA
:102240000C3103F0E063002B03D17B685B6DFB81F5
:1022500003E07B68D3F81C31FB81FB8918461437F7
:10226000BD465DF8047B704780B483B000AF7860F2
:1022700039607B681A6C3B6803F4FE331A437B6851
:102280001A647B68DA6B3B685B039BB21A437B681A
:10229000DA630C37BD465DF8047B704780B483B0C9
:1022A00000AF786039607B681A6C3B6803F4FE33DA
:1022B000DB431A407B681A647B68DA6B3B685B031C
:1022C0009BB2DB431A407B68DA630C37BD465DF88E
:1022D000047B704780B582B000AF78607B681A4A93
:1022E000934203D07B68194A934203D1184800F007
:1022F000C9F816E07B68174A934203D07B68164AF8
:10230000934203D1154800F0BDF80AE07B68144AF7
:10231000934203D07B68134A934202D1124800F0E3
:10232000B1F87B680322DA6000BF7B68DB6803F0EA
:102330000103002BF9D07B681B6C23F00F027B6834
:102340001A640837BD4680BD000003400002034008
:10235000080003400000024800020248080002484A
:1023600000400248004202480840024880B58EB052
:1023700000AFF860B9607A60BB68632B58D97B689E
:10238000002B55D0FEF798F902462E4BA3FB0223F3
:102390005B093B62BB682B4AA2FB03235B09BB6062
:1023A0000123FB620123BB6240F2FF337B6240F2F8
:1023B000FF333B6322E03B6A3A6B02FB03F2BB68EC
:1023C000796801FB03F3B2FBF3F3FB61FB699B0A42
:1023D000BB61FB69C3F309037B61BB69B3F5806F24
:1023E00009D27A697B6A9A4205D27B697B62BB69B2
:1023F000BB623B6BFB623B6B013B3B633B6B002B6C
:10240000D9D1FB6A43F40042FB681A61FB685A6940
:102410000D4B13407A68013A92021A43BB6A013BA2
:102420001B041A43FB685A61002387F8373002E027
:10243000012387F8373097F8373018463837BD46CC
:1024400080BD00BF1F85EB51EF8000FC80B485B0DC
:1024500000AFF8600B467A60FB72FB689A69FB7A02
:10246000072101FA03F3DB431A40FB7A796801FA8A
:1024700003F31A43FB689A611437BD465DF8047B89
:10248000704700BF80B582B000AF78607B68124AA9
:10249000934208D14FF40060FEF752FA4FF4006007
:1024A000FEF7CAF814E07B680C4A934206D10C4848
:1024B000FEF746FA0A48FEF7BFF809E07B68094ACA
:1024C000934205D10848FEF73BFA0748FEF7B4F8F7
:1024D0000837BD4680BD00BF080003400800024821
:1024E00080000010084002480001001080B584B050
:1024F00000AF7860144B1B68002B02D1124B134ABB
:102500001A60114B1B68FB607B68033323F00303E5
:102510007B600D4B1A687B6813440D4A934207D2C7
:10252000094B1A687B681344074A1360FB6806E08E
:1025300006F0B0FA02460C2313604FF0FF33184642
:102540001037BD4680BD00BF108BFE1FA03000209D
:10255000C0FF032080B400AFBD465DF8047B704728
:1025600080B483B000AF78600B46FB707B68DA689C
:10257000FB78012101FA03F31A437B68DA600C3718
:10258000BD465DF8047B704780B483B000AF7860CF
:102590007B680122DA600C37BD465DF8047B70472A
:1025A00080B483B000AF78607B6802221A610C3778
:1025B000BD465DF8047B704780B483B000AF78609F
:1025C0000B467B807A887B685A630C37BD465DF882
:1025D000047B704780B483B000AF78600B467B808B
:1025E0007A887B68DA630C37BD465DF8047B7047F8
:1025F00080B483B000AF786039607B683A681A6154
:102600000C37BD465DF8047B704700BF80B483B0D3
:1026100000AF78607B681B6F9BB218460C37BD46D5
:102620005DF8047B704700BF80B483B000AF786072
:102630000B46FB707B68D3F8A420FB78012101FADC
:1026400003F31A437B68C3F8A4200C37BD465DF83A
:10265000047B704780B483B000AF78600B46FB709A
:102660007B68D3F8B020FB78012101FA03F31A4309
:102670007B68C3F8B0200C37BD465DF8047B70471B
:1026800080B584B000AF78600023FB737B6893F85B
:10269000263083F00103DBB2002B09D07B6893F86E
:1026A0002130002B04D1786800F05EF80346FB73FC
:1026B000FB7B18461037BD4680BD00BF80B582B099
:1026C00000AF78607B6893F82130002B05D17B68E0
:1026D0005B6918460021FFF7BDFF0837BD4680BD86
:1026E000F0B587B000AF786000237B617B6893F81A
:1026F0002130002B31D17B685B691846FFF786FFDC
:10270000034601333B617B68DB691B79C3F3030339
:10271000DBB2FB603B691A464FF00003114901FB35
:1027200003F0002101FB02F101440E48A2FB00234B
:1027300019440B46F968C1F12001C1F12006A1F14D
:10274000200022FA01F403FA06F6344323FA00F0DB
:10275000044323FA01F523467B617B6918461C3745
:10276000BD46F0BD711CC7B180B584B000AF7860C4
:102770007B681B69184601F0E3FB0346FB737B682B
:102780001B699A687B681B7E10461946FFF7E8FEB6
:102790007B685A697B68DB6910461946FEF7B2FB15
:1027A000786800F02DF87B6893F82530002B0FD067
:1027B0007B685A697B6893F82030104600211A46DE
:1027C000FEF7D6FB7B685B6918460021FFF72CFFFC
:1027D0007B685B691846FFF7E3FE7B68012283F89C
:1027E00026207B6893F82430002B04D07B685B693B
:1027F0001846FFF7C9FEFB7B18461037BD4680BD63
:1028000080B582B000AF78607B685A697B685B8C6A
:1028100010461946FFF7D0FE7B685B691846002119
:10282000FFF7D8FE7B681B699A687B68DB681046F7
:102830001946FFF7DDFE0837BD4680BD80B400AF06
:10284000044BDB6803F4E0631B0A1846BD465DF8E1
:10285000047B704700ED00E080B483B000AF034616
:102860003960FB7197F90730002B0BDA0D49FB79C2
:1028700003F00F03043B3A68D2B29200D2B20B4489
:102880001A7609E0084997F907303A68D2B29200FF
:10289000D2B20B4483F800230C37BD465DF8047BAD
:1028A000704700BF00ED00E000E100E080B489B0B7
:1028B00000AFF860B9607A60FB6803F00703FB6162
:1028C000FB69C3F10703062B28BF0623BB61FB6925
:1028D0000633062B02D9FB69013B00E000237B6134
:1028E000BB69012202FA03F35A1EBB681A407B69D6
:1028F0009A407B69012101FA03F3591E7B680B4062
:10290000134318462437BD465DF8047B704700BF6B
:1029100080B582B000AF78607B68013BB3F1807F07
:1029200001D301230FE00A4A7B68013B53604FF05B
:10293000FF303F21FFF790FF054B00229A60044BC8
:1029400007221A60002318460837BD4680BD00BF25
:1029500010E000E090B486B000AF78600023FB7315
:102960006B497A681346DB0013449B000B44183311
:102970001B68BB60674B1B68002B09D17A68134644
:10298000DB0013449B00624A1344624A1360BBE0BD
:10299000604B1B687B61BB683B61ABE07B699B69FB
:1029A0001A463B699B1A3B613B69002B7ADC7B69C9
:1029B0005B68002B26D07B6959687A681346DB0078
:1029C00013449B00524A13440B607B69596850487A
:1029D0007A681346DB0013449B00034459604C495A
:1029E0007A681346DB0013449B000B447A691A6033
:1029F0007A681346DB0013449B00454A1A447B69FE
:102A00005A601CE0434B196841487A681346DB0062
:102A100013449B00034419603E4B19687A681346BF
:102A2000DB0013449B003A4A13444B607A68134618
:102A3000DB0013449B00364A1344364A1360344982
:102A40007A681346DB0013449B000B441B689A69A9
:102A50003B69D1182E487A681346DB0013449B006B
:102A60000344183319602A497A681346DB0013447B
:102A70009B000B44196826487A681346DB00134410
:102A80009B0003441B689869214C7A681346DB005D
:102A900013449B00234418331B68C31A8B61012322
:102AA000FB7324E03B69002B21DD7B691B68002B55
:102AB0001DD117497A681346DB0013449B000B4471
:102AC0007A695A607A681346DB0013449B00104A07
:102AD0001A447B691A6039690D487A681346DB002D
:102AE00013449B000344183319600123FB737B6973
:102AF0001B687B617B69002B06D0FB7B83F00103A5
:102B0000DBB2002B7FF44AAF1837BD4690BC70474C
:102B1000FCF0FE1F148BFE1F80B485B000AF786000
:102B20007A681346DB0013449B00294A1344FB6078
:102B3000FB685B68002B07D1FB681B68002B03D187
:102B4000244B00221A603DE0FB685B68002B14D127
:102B5000FB681B681F4A13601E4B1B6800225A60EB
:102B60001C4B1B681B4A12689169FA6892690A44F7
:102B70009A61FB6800221A6024E0FB681B68002B46
:102B800007D1FB685B6800221A60FB6800225A606C
:102B900018E0FB685B68FA6812681A60FB681B68DB
:102BA000FA6852685A60FB681B68FA681268916993
:102BB000FA6892690A449A61FB6800221A60FB680D
:102BC00000225A601437BD465DF8047B704700BF91
:102BD000FCF0FE1F148BFE1F80B582B000AF2F4BA0
:102BE0001B687B6050E07B6893F82030002B13D08B
:102BF0007B685B691846FFF78FFF7B6800225A737A
:102C00007B685B691A4601239340DA43244B1B68B7
:102C10001340234A136034E07B681B7B002B12D1E6
:102C20007B685B7B012B2CD17B685B691846FFF7C7
:102C300073FF7B6802225A737B689B687A6812690B
:102C4000104698471DE07B681B7B012B18D17B68E1
:102C50005B7B012B15D17B685B691846FFF75CFF36
:102C60007B68DA697B689A617B685B691846FFF765
:102C700071FE7B689B687A6812691046984700E08D
:102C800009E0064B1B687B607B68002B03D07B68E8
:102C90009B69002BA7D00837BD4680BD148BFE1F53
:102CA000188BFE1F80B582B000AF0E4B1B687B6097
:102CB0000D4B1B6801330C4A13607B68002B0ED050
:102CC0007B689B69012B05D97B689B695A1E7B68D1
:102CD0009A6104E07B6800229A61FFF77DFF083764
:102CE000BD4680BD148BFE1F1C8BFE1F80B584B0BB
:102CF00000AF78600023FB737B681B7883F00103CF
:102D0000DBB2002B21D0134B00221A604FF4B460C9
:102D1000FFF7FEFD0346FB73FB7B012B15D0FFF78E
:102D20008DFD034618463F210022FFF7BFFD0346F5
:102D30004FF0FF301946FFF78FFD074B00221A6056
:102D40007B6801221A700023FB73FB7B1846103747
:102D5000BD4680BD148BFE1F188BFE1F80B489B04A
:102D600000AFF8607A603B600B46FB720023FB61AA
:102D70000023BB6100237B61FB68092B02D8002381
:102D8000FB617BE00023BB6175E0BB6901229A40D7
:102D90003E4B1B681340002B6AD1BB6901229A404D
:102DA0003A4B1B681343394A13603949BA691346D1
:102DB000DB0013449B000B441033BA695A6034495A
:102DC000BA691346DB0013449B000B440833FA7ABC
:102DD0001A712F49BA691346DB0013449B000B4458
:102DE000083302225A71FB682A4AA2FB0323DB083C
:102DF0007B617B69591C2648BA691346DB00134482
:102E00009B000344183319602149BA691346DB005B
:102E100013449B000B4418337A695A601C49BA6901
:102E20001346DB0013449B000B4408337A681A6096
:102E30001749BA691346DB0013449B000B44103357
:102E40003A681A601249BA691346DB0013449B00C2
:102E50000B4400225A600E49BA691346DB00134442
:102E60009B000B4400221A60BB690133FB6105E043
:102E7000BB690133BB61BB69002B86D0FB69184677
:102E80002437BD465DF8047B704700BF188BFE1FDA
:102E9000FCF0FE1FCDCCCCCC80B584B000AF786008
:102EA0000123FB737B685A1E1A491346DB00134447
:102EB0009B000B4408335B79022B26D17B685A1E9A
:102EC0007B68591E13480B46DB000B449B000344F0
:102ED00018335B68591C0F481346DB0013449B00F2
:102EE0000344183319607B685A1E0A491346DB00F5
:102EF00013449B000B44083301225A717B68013B49
:102F00001846FFF727FD0023FB73FB7B184610379D
:102F1000BD4680BDFCF0FE1F80B400AF034B1B68B4
:102F20001846BD465DF8047B704700BF1C8BFE1F32
:102F300080B483B000AF78600B46FB707B681B6C7D
:102F400023F0C002FB789B01DBB21A437B681A6452
:102F50000C37BD465DF8047B704700BF80B483B07A
:102F600000AF78600B46FB70FB7840F201129A408C
:102F70007B68C3F8A0230C37BD465DF8047B70471F
:102F800080B485B000AFF8600B467A60FB72FB7AC4
:102F9000FA68582101FB03F313447A681A60143766
:102FA000BD465DF8047B704780B485B000AFF86023
:102FB0000B467A60FB72FB7AFA68582101FB03F337
:102FC000134408337A681A601437BD465DF8047BF1
:102FD000704700BF80B485B000AFF8600B467A60E0
:102FE000FB72FB7AFA68582101FB03F31344183390
:102FF0007A685A601437BD465DF8047B704700BF9D
:1030000080B584B000AF78607B685B685B68984788
:103010000346FB73FB7B18461037BD4680BD00BFDF
:1030200080B586B000AFF860B9607A600123FB75A7
:10303000FB685B6893F88430012B06D1F868B968A7
:103040007A6800F021F80346FB75FB7D18461837B7
:10305000BD4680BD80B586B000AFF860B9607A60CB
:103060000123FB75FB685B6893F88530012B06D163
:10307000F868B9687A6800F0DBF80346FB75FB7DF9
:1030800018461837BD4680BD80B588B000AFF860DF
:10309000B9607A600423FB77FB689B687B61FB68FF
:1030A0005B6893F88430012B40F0BC807B6993F817
:1030B0002030DBB283F00103DBB2002B00F0B080E4
:1030C000BB68002B00F0A9807B68002B00F0A58076
:1030D0007B68B3F5805F80F0A0807B697A685A6076
:1030E0007B6900229A607B69012283F820207B693A
:1030F00093F82130DBB2002B29D0FB68DB681A681B
:10310000FB685B7F1946582303FB01F31344183314
:103110001B683B613B6923F4C06343F480633B61FC
:10312000FB68DB681A68FB685B7F1946582303FB62
:1031300001F3134418333A691A60FB689B681B7FDC
:10314000DBB21A464FF6FB731340BB6125E07B6987
:10315000BA689A61FB68DB681A68FB685B7F19468E
:10316000582303FB01F3134418331B683B613B698D
:1031700023F4C0633B61FB68DB681A68FB685B7F14
:103180001946582303FB01F3134418333A691A60B4
:10319000FB689B681B7FDBB2BB61FB681B68184642
:1031A0004FF48061FFF760F8FB68DB681A68FB6822
:1031B0005B7F104619467A68FFF70CFFFB68DB68F7
:1031C0001968FB685A7F7B699B69084611461A4655
:1031D000FFF7D6FEFB681A687B691B7FDBB21046DF
:1031E0001946FFF7A5FEFB68DB681868FB68597F86
:1031F000FB681A68BB6920339B0013441A46FFF72B
:10320000D3FE0023FB77FB68DB681A68FB685B7FF3
:1032100010461946FFF7A2FE04E00323FB7701E006
:103220000223FB77FB7F18462037BD4680BD00BFD9
:1032300080B586B000AFF860B9607A600423FB7592
:10324000FB689B683B61FB685B6893F88530012BEA
:103250003CD10223FB753B69DB7FDBB283F00103CA
:10326000DBB2002B30D03B6993F82030DBB283F027
:103270000103DBB2002B27D0BB68002B21D07B6879
:10328000002B1ED07B68B3F5805F1AD23B69012208
:10329000DA773B69BA685A613B690F4A9A613B69C0
:1032A0007A685A603B69012283F821203B69002239
:1032B00083F82220F868796800F068F80346FB7507
:1032C00004E00323FB7501E00223FB75FB7D184638
:1032D0001837BD4680BD00BF9088FE1F80B586B000
:1032E00000AFF860B9607A603B600223FB75FB6851
:1032F0009B683B613B691B7FDBB2002B3FD1BB6806
:10330000002B38D07B68002B35D03B68002B32D0A7
:103310003B69DB7FDBB283F00103DBB2002B29D0FA
:103320003B6993F82030DBB283F00103DBB2002B62
:1033300020D03B690122DA773B697A685A613B69A0
:10334000BA689A613B693A685A603B69002283F81F
:1033500021203B69002283F82220FB685B6893F8F8
:103360008530012B06D1F868396800F00FF8034664
:10337000FB7503E002E00323FB7502E001E001239B
:10338000FB75FB7D18461837BD4680BD80B584B0FF
:1033900000AF786039607B689B68FB60FB68002247
:1033A0001A61FB683A68DA607B681B68184600F0AF
:1033B00047F87B681B6818464FF44041FEF754FFFE
:1033C0007B68DB6819687B681A7FFB68DB680846E6
:1033D00011461A46FFF7FEFD7B68DB6819687B68BB
:1033E0001A7F7B681B685433084611461A46FFF75C
:1033F000C7FD7B68DB6819687B681A7FFB685B69BF
:10340000084611461A46FFF7CFFD0023FB727B6882
:10341000DB681A687B681B7F10461946FFF79EFD24
:10342000FB689A69FB685B68786811461A46FFF783
:10343000F7FD0346FB72FB7A18461037BD4680BD88
:1034400080B582B000AF78607868FEF7F3FE7868E8
:10345000FEF7F0FE0837BD4680BD00BF80B483B0E4
:1034600000AF78600B46FB701346BB70F878FB78B2
:103470007A6806339B0013445B6823F00702BB782D
:103480001A437968831D9B000B445A600C37BD4674
:103490005DF8047B704700BF80B483B000AF7860F4
:1034A0000B46FB707B685B6B23F07062FB78013B23
:1034B0001B061A437B685A630C37BD465DF8047BD4
:1034C000704700BF80B483B000AF78600B46FB70DC
:1034D0007B685B6B23F47C12FB78013B1B041A4373
:1034E0007B685A630C37BD465DF8047B704700BFAC
:1034F00080B483B000AF78607B689B6BDBB223F055
:103500007F03DBB218460C37BD465DF8047B70477D
:1035100080B483B000AF786039603B684FF480328C
:103520009A407B689A660C37BD465DF8047B70470D
:1035300080B485B000AFF860B9607A60FB685B6901
:1035400023F05042BB681A437B681A43FB685A61F8
:103550001437BD465DF8047B704700BF80B483B06C
:1035600000AF78600B46FB707B681B6C23F00F028A
:10357000FB781A437B681A640C37BD465DF8047B00
:10358000704700BF80B582B000AF786078680121D5
:10359000FFF7E4FF0837BD4680BD00BF80B483B0AD
:1035A00000AF78607B685B6B43F001027B685A6315
:1035B0000C37BD465DF8047B704700BF80B483B014
:1035C00000AF786039607B685B6923F4FE423B683A
:1035D000013B9B02134343F480727B685A610C37B2
:1035E000BD465DF8047B704780B483B000AF78605F
:1035F0007B68DB6B23F008027B68DA630C37BD461F
:103600005DF8047B704700BF80B584B000AFF86000
:10361000B9607A60F868B9687A68FFF789FF10378F
:10362000BD4680BD80B582B000AF78600B46FB70B0
:10363000FB7878681946FFF72FFF0837BD4680BD35
:1036400080B582B000AF78600B46FB70FB7878687D
:103650001946FFF737FF0837BD4680BD80B582B0F9
:1036600000AF78600B46FB701346BB70F878FB78B0
:103670007A6806339B0013445B6823F0500343F0E1
:1036800010027968831D9B000B445A60FA78BB785E
:10369000786811461A46FFF7E1FE0837BD4680BD3F
:1036A00080B582B000AF0023FB71424800F0F2FB0E
:1036B0000346FB71FB79002B76D13F4803213F4A3B
:1036C000FDF706FE3C4803210122FEF707F83A48C1
:1036D00003213B4AFEF750F837480221394AFDF7EB
:1036E000F7FD354802210122FDF7F8FF324802219B
:1036F000354AFEF741F835483549FEF751FD334864
:10370000FFF772FF3148FFF749FF30480821FFF704
:1037100089FF2E481821FFF793FF2C480021002233
:10372000FFF772FF29480221FFF748FF29480721C8
:10373000294AFCF743FE254800210222FFF78EFFAD
:103740002248FFF71FFF23480821244AFCF736FED2
:1037500020480921224AFCF731FE22480321224A4F
:10376000FCF72CFE19484FF48031FEF74DFD1D4843
:1037700004211E4AFCF722FE144804210122FEF710
:1037800065FE124808210022FEF760FE0F480C215A
:103790000022FEF75BFE0D4810210222FEF756FEC6
:1037A0000A480121FFF7B4FEFB7918460837BD46E9
:1037B00080BD00BF108AFE1F00800150C488FE1F1C
:1037C000F1370008E888FE1F293800080040024849
:1037D000BC88FE1F00830248248BFE1F9488FE1FB6
:1037E0009C8C000800850248B88C0008A888FE1F41
:1037F00080B582B000AF0346FB71FB79012B0BD182
:1038000000BF0748FFF774FE0346802BF9D0054B35
:103810009B68002283F820200837BD4680BD00BF8A
:10382000004002483089FE1F80B582B000AF0346D9
:10383000FB71FB79012B12D10A484FF44041FEF78E
:103840002DFD094B9B68002283F82120064B9B68C5
:10385000012283F82220044B9B680022DA77083784
:10386000BD4680BD004002483089FE1F80B582B051
:1038700000AF0023FB71454800F00CFB0346FB71D1
:10388000FB79002B7DD142480021424AFDF720FD03
:103890003F4800210122FDF721FF3D4800213E4A1B
:1038A000FDF76AFF3A4801213C4AFDF711FD38480F
:1038B00001210122FDF712FF35480121384AFDF7A9
:1038C0005BFF38483849FEF76BFC3648FFF766FE69
:1038D00034480821FFF7A6FE32482021FFF7B0FE4A
:1038E000304800210022FFF78FFE2E480221FFF70B
:1038F00065FE2E4804212E4AFCF760FD2948002170
:103900000022FFF7ABFE2748FFF73CFE27480521C2
:10391000284AFCF753FD25480B21274AFCF74EFDAA
:1039200022480621254AFCF749FD1E484FF4803104
:10393000FEF76AFC1D480E21214AFCF73FFD1B489B
:103940000F21204AFCF73AFD1F480E211F4AFCF7C1
:1039500035FD144804210022FEF778FD11480821A6
:103960000122FEF773FD0F480C210122FEF76EFDC8
:103970000C4810210222FEF769FD0A480021FFF7DA
:10398000C7FDFB7918460837BD4680BD208AFE1F5B
:10399000004001508089FE1FD1390008A489FE1F14
:1039A000093A0008000002487889FE1F008002489A
:1039B000388BFE1F5089FE1F788D0008948D0008FB
:1039C0006489FE1FB88D000800830248D48D00086A
:1039D00080B582B000AF0346FB71FB79012B0BD1A0
:1039E00000BF0748FFF784FD0346802BF9D0054B45
:1039F0009B68002283F820200837BD4680BD00BFA9
:103A000000000248EC89FE1F80B582B000AF03467B
:103A1000FB71FB79012B12D10A484FF44041FEF7AC
:103A20003DFC094B9B68002283F82120064B9B68D4
:103A3000012283F82220044B9B680022DA770837A2
:103A4000BD4680BD00000248EC89FE1F80B400AF77
:103A5000044BDB6803F4E0631B0A1846BD465DF8BF
:103A6000047B704700ED00E080B483B000AF0346F4
:103A7000FB71084997F907305B09FA7902F01F02D8
:103A8000012000FA02F241F823200C37BD465DF810
:103A9000047B704700E100E080B483B000AF0346D0
:103AA000FB71094997F907305B09FA7902F01F02A7
:103AB000012000FA02F2603341F823200C37BD46A2
:103AC0005DF8047B704700BF00E100E080B483B084
:103AD00000AF03463960FB7197F90730002B0BDA12
:103AE0000D49FB7903F00F03043B3A68D2B2920010
:103AF000D2B20B441A7609E0084997F907303A68C0
:103B0000D2B29200D2B20B4483F800230C37BD46E8
:103B10005DF8047B704700BF00ED00E000E100E0CD
:103B200080B489B000AFF860B9607A60FB6803F0D8
:103B30000703FB61FB69C3F10703062B28BF0623BC
:103B4000BB61FB690633062B02D9FB69013B00E030
:103B500000237B61BB69012202FA03F35A1EBB6892
:103B60001A407B699A407B69012101FA03F3591ECF
:103B70007B680B40134318462437BD465DF8047B31
:103B8000704700BF90B583B000AF78607B6859681C
:103B90007B6893F821207B680833084611461A4653
:103BA000FCF70CFC7B6819687B68DA7F7B68143350
:103BB000084611461A46FDF711FF7B681A687B68B4
:103BC00093F82030104619460122FDF72DFF7B683F
:103BD0001C7FFFF73BFF01467B685B7F1A467B68D3
:103BE0009B7F084611461A46FFF79AFF024663B2CA
:103BF00018461146FFF76AFF7B6893F82230002BC6
:103C00000BD07B681B7F5BB21846FFF745FF7B68D4
:103C10001B7F5BB21846FFF727FF002318460C37BF
:103C2000BD4690BD80B400AF044BDB6803F4E06395
:103C30001B0A1846BD465DF8047B704700ED00E0A6
:103C400080B483B000AF0346FB71084997F9073091
:103C50005B09FA7902F01F02012000FA02F241F832
:103C600023200C37BD465DF8047B704700E100E07F
:103C700080B483B000AF03463960FB7197F9073019
:103C8000002B0BDA0D49FB7903F00F03043B3A6874
:103C9000D2B29200D2B20B441A7609E0084997F9E1
:103CA00007303A68D2B29200D2B20B4483F80023B4
:103CB0000C37BD465DF8047B704700BF00ED00E0A7
:103CC00000E100E080B489B000AFF860B9607A60CC
:103CD000FB6803F00703FB61FB69C3F10703062BD5
:103CE00028BF0623BB61FB690633062B02D9FB699B
:103CF000013B00E000237B61BB69012202FA03F370
:103D00005A1EBB681A407B699A407B69012101FAFF
:103D100003F3591E7B680B40134318462437BD46F6
:103D20005DF8047B704700BF80B582B000AF78605B
:103D30007B681B785BB21846FFF782FF0837BD46E9
:103D400080BD00BF90B583B000AF78607B681C7801
:103D5000FFF768FF01467B685B781A467B689B78B3
:103D6000084611461A46FFF7ADFF024663B21846F1
:103D70001146FFF77DFF7B68DB78002B02D0786867
:103D8000FFF7D2FF002318460C37BD4690BD00BF99
:103D900080B400AF044BDB6803F4E0631B0A1846F1
:103DA000BD465DF8047B704700ED00E080B483B051
:103DB00000AF0346FB71084997F907305B09FA79B0
:103DC00002F01F02012000FA02F241F823200C3712
:103DD000BD465DF8047B704700E100E080B483B02D
:103DE00000AF03463960FB7197F90730002B0BDAFF
:103DF0000D49FB7903F00F03043B3A68D2B29200FD
:103E0000D2B20B441A7609E0084997F907303A68AC
:103E1000D2B29200D2B20B4483F800230C37BD46D5
:103E20005DF8047B704700BF00ED00E000E100E0BA
:103E300080B489B000AFF860B9607A60FB6803F0C5
:103E40000703FB61FB69C3F10703062B28BF0623A9
:103E5000BB61FB690633062B02D9FB69013B00E01D
:103E600000237B61BB69012202FA03F35A1EBB687F
:103E70001A407B699A407B69012101FA03F3591EBC
:103E80007B680B40134318462437BD465DF8047B1E
:103E9000704700BF90B583B000AF78607B681B7A35
:103EA00083F00103DBB2002B24D07B681B6818462B
:103EB000FDF70AF97B685C7AFFF76AFF01467B68C9
:103EC0005B681B781A467B685B685B78084611461E
:103ED0001A46FFF7ADFF024663B218461146FFF7D8
:103EE0007DFF7B685B7A5BB21846FFF75FFF7B68FC
:103EF00001221A72002318460C37BD4690BD00BF40
:103F000080B500AF0148FDF759FC80BD004001506D
:103F100080B500AF0148FDF751FC80BD0080015025
:103F200080B483B000AF78607B68DB6843F4807254
:103F30007B68DA600C37BD465DF8047B704700BFD4
:103F400080B582B000AF78607B685B7B83F0010353
:103F5000DBB2002B0FD07B689A687B681B7B104616
:103F60001946FCF7B1FF7B689B681846FFF7D8FF3E
:103F70007B6801225A73002318460837BD4680BD6E
:103F800080B400AF044BDB6803F4E0631B0A1846FF
:103F9000BD465DF8047B704700ED00E080B483B05F
:103FA00000AF0346FB71084997F907305B09FA79BE
:103FB00002F01F02012000FA02F241F823200C3720
:103FC000BD465DF8047B704700E100E080B483B03B
:103FD00000AF0346FB71094997F907305B09FA798D
:103FE00002F01F02012000FA02F2203341F82320E0
:103FF0000C37BD465DF8047B704700BF00E100E070
:1040000080B483B000AF0346FB71094997F90730CC
:104010005B09FA7902F01F02012000FA02F2603314
:1040200041F823200C37BD465DF8047B704700BF84
:1040300000E100E080B483B000AF03463960FB715B
:1040400097F90730002B0BDA0D49FB7903F00F03CA
:10405000043B3A68D2B29200D2B20B441A7609E01D
:10406000084997F907303A68D2B29200D2B20B44AD
:1040700083F800230C37BD465DF8047B704700BF12
:1040800000ED00E000E100E080B489B000AFF8602E
:10409000B9607A60FB6803F00703FB61FB69C3F159
:1040A0000703062B28BF0623BB61FB690633062BDB
:1040B00002D9FB69013B00E000237B61BB6901225F
:1040C00002FA03F35A1EBB681A407B699A407B6967
:1040D000012101FA03F3591E7B680B401343184674
:1040E0002437BD465DF8047B704700BF80B483B0C1
:1040F00000AF78603960044A3B6813600C37BD46F6
:104100005DF8047B704700BF4040005080B483B02E
:1041100000AF78607B681B687A681268126822F4C6
:1041200080121A600C37BD465DF8047B704700BFF3
:1041300080B483B000AF78600B467B8013463B8031
:104140007B681B687A681268126822F490417A884A
:1041500011433A880A431A600C37BD465DF8047B68
:10416000704700BF80B483B000AF78607B681A6985
:104170007B6893F827305B0113441B68DB0FDBB2CD
:1041800018460C37BD465DF8047B704780B483B099
:1041900000AF78607B685A697B6893F826305B01D2
:1041A00013441B68DB0FDBB218460C37BD465DF8C5
:1041B000047B704780B483B000AF78607B68196877
:1041C0007B681B6803F5805318331B6843F00202B9
:1041D00001F5805318331A607B681B687A6812688F
:1041E000126842F004021A600C37BD465DF8047B89
:1041F000704700BF80B483B000AF78607B681B68F5
:104200007A681268126822F004021A607B681968E2
:104210007B681B6803F5805318331B6823F0020288
:1042200001F5805318331A600C37BD465DF8047BE6
:10423000704700BF80B483B000AF78607B681968B6
:104240007B681B6803F5805318331B6843F40052E6
:1042500001F5805318331A607B681B687A6812680E
:10426000126842F008021A600C37BD465DF8047B04
:10427000704700BF80B483B000AF78607B681B6874
:104280007A681268126822F008021A607B6819685E
:104290007B681B6803F5805318331B6823F40052B6
:1042A00001F5805318331A600C37BD465DF8047B66
:1042B000704700BF80B483B000AF78607B681B6834
:1042C00003F58053143302221A607B681B6803F5E0
:1042D0008053043300221A600C37BD465DF8047B1E
:1042E000704700BF80B483B000AF78607B681B6804
:1042F00003F58053143380221A607B681B6803F532
:104300008053083300221A600C37BD465DF8047BE9
:10431000704700BF80B483B000AF78607B685A6993
:104320007B6893F826305B0113449B6818460C3772
:10433000BD465DF8047B704780B483B000AF786001
:104340007B681A697B6893F827305B0113449B688C
:1043500018460C37BD465DF8047B704780B483B0C7
:1043600000AF786039607B685A697B6893F82630C3
:104370005B0113443A685A600C37BD465DF8047B14
:10438000704700BF80B586B000AF786000237B61C6
:104390007B6893F82D3003F01003002B5DD0384874
:1043A0000021384A03F0F2FC38613B69002B04D04D
:1043B0003B69DBB2184600F063FA3148002103F094
:1043C000ABFD0346FB737B6901337B61FB7B83F0B1
:1043D0000103DBB2002B03D07B692B4A9342ECD95B
:1043E000FB7B83F00103DBB2002B02D0042000F042
:1043F00047FA2348002103F057FD0346BB812048BC
:10440000002103F06DFD03467B81BA897B891C483E
:1044100011461A46FFF78CFE19484021FDF7A8FD0A
:10442000FFF7AEFD034618463F210022FFF72CFEA2
:1044300003466C201946FFF7FDFD6C20FFF7E0FDF9
:104440006C20FFF7ABFD0E48FFF7F4FE0C48FFF7BA
:10445000B1FE0E4802F09CFC0FE009484021FDF738
:10446000BFFD6C20FFF7B2FD0548FFF703FF0448CE
:10447000FFF7C0FE054802F0C1FC1837BD4680BDFD
:10448000408AFE1FC88E0008FEFF0F00708AFE1FC4
:1044900080B582B000AF78601248002103F0EAFCDA
:1044A0000346002B0AD1104B93F82D3003F0100374
:1044B000002B0DD00C4802F001FD09E00A4B93F8E7
:1044C0002D3003F01003002B02D1074802F0B8FC96
:1044D0004FF47A700549002203F0A2F80837BD4670
:1044E00080BD00BF408AFE1F708AFE1F91440008F5
:1044F00080B586B000AF78604FF48033FB60002356
:104500003B7207F10803474809211A46FBF756FF9B
:1045100000233B7207F10803434804211A46FBF7C6
:104520004DFF00233B7207F108033F4802211A4662
:10453000FBF744FF00233B7207F108033A480321CD
:104540001A46FBF73BFF00233B7488233B7207F1BD
:104550000803354805211A46FBF730FF00233B745A
:1045600088233B7207F108032F4808211A46FBF7FE
:1045700025FF00233B7488233B7207F108032A4878
:1045800009211A46FBF71AFF00233B7207F10803C3
:10459000244808211A46FBF711FF00233B748823A7
:1045A0003B7207F10803204807211A46FBF706FF74
:1045B00000233B7207F108031B4800211A46FBF752
:1045C000FDFE194800210122FDF7C8FDFB7D43F0E7
:1045D0000403FB753B7D6FF301033B753B7D6FF37C
:1045E00083033B757B7D022262F301037B757B7D38
:1045F000022262F383037B757B7D6FF387137B75E8
:10460000BB7D012262F38713BB7508487969FFF708
:104610006DFD0648FDF7A0FA0448FFF777FD18374F
:10462000BD4680BD008F024800820248408AFE1FBE
:1046300080B586B000AF7860396000233B613B688D
:104640001B8940F2F452934201D9FE2340E02348F3
:10465000FFF79CFD0346002B04D02048FFF72AFEFD
:10466000FE2335E01D48FFF755FEF86038686FF00F
:10467000010102F0A5FD3B687B6117E07B695A6888
:104680007B695B89F86811461A4600F00BF97B6973
:104690005B891A463B6913443B617B695B891A4617
:1046A000FB681344FB607B691B687B617B69002BA3
:1046B000E4D13868022102F083FD08483969FFF728
:1046C0004DFE0648FDF710FD0448FFF7F3FD0023FB
:1046D0005BB218461837BD4680BD00BF408AFE1F3A
:1046E00080B584B000AF0023FB602E48FFF73AFD91
:1046F000034683F00103DBB2002B4DD02948FDF7C0
:1047000027FB78607B68002B40D07B6840F2F45236
:1047100093423BD87B6802337B607B689BB203206B
:104720001946032202F0FAFBF860FB68002B29D03F
:10473000F8686FF0010102F043FD1A48FFF7FCFD35
:10474000386000237B60FB68BB6014E0BB6859687D
:104750003A687B681A44BB685B89084611461A466A
:1047600000F0A0F8BB685B891A467B6813447B6045
:10477000BB681B68BB60BB68002BE7D1F8680221EF
:1047800002F01EFD0748FDF77FFC02E00548FDF73B
:104790007BFC0448FFF7A6FDFB6818461037BD46B2
:1047A00080BD00BF408AFE1F80B586B000AF786034
:1047B00000237B617B683B61FFF792FF786124E017
:1047C0007B695B68FB60FB68DB899BB2184601F084
:1047D00027FF0346B3F5006F03D040F6060293426D
:1047E0000CD13B691B697869396998470346002BEE
:1047F00003D0786902F056FD04E003E0786902F026
:1048000051FD00BFFFF76CFF78617B69002BD7D1AA
:104810001837BD4680BD00BF80B582B000AF78605C
:104820007B680C4A5A617B680B4A9A617868FFF78B
:104830005FFE4FF47A700949002202F0F1FE7868B9
:10484000074902F05BFB00235BB218460837BD4600
:1048500080BD00BF21500008314600089144000887
:104860008543000880B500AF03484021FDF7DEFB1B
:104870000248FFF799FF80BD408AFE1F708AFE1F25
:1048800080B483B000AF0346FB71FB79032B04D0E7
:10489000042B03D0022B02D002E002E001E000E092
:1048A00000BFFEE7130911D051F804CB40F804CB48
:1048B00051F804CB40F804CB51F804CB40F804CBBA
:1048C00051F804CB40F804CB013BEDD112F00F03BB
:1048D00005D011F801CB00F801CB013BF9D17047AD
:1048E00080B500AFFEF718FB07EE900AF8EE677A86
:1048F0009FED047A67EE877AFCEEE77A17EE903A3E
:10490000184680BD0AD7233C80B582B000AF7860DE
:1049100015497A6813469B0013449B000B441B689F
:10492000002B13D010497A6813469B0013449B0058
:104930000B441B68184602F0B5FC0B497A68134615
:104940009B0013449B000B4400221A6006497A68BE
:1049500013469B0013449B000B44103300229A70B3
:104960000837BD4680BD00BF4C8BFE1F80B582B0AE
:1049700000AF0023FB715EE0FA79324913469B00D9
:1049800013449B000B4410339B78BB71BB79002B05
:104990004ED0FA792B4913469B0013449B000B44DD
:1049A0001033DB780133D8B2264913469B001344F9
:1049B0009B000B4410330246DA70FA792149134602
:1049C0009B0013449B000B441033DB78EF2B15D86E
:1049D000FA791C4913469B0013449B000B44103387
:1049E0009B78012B0FD1FA79164913469B0013448B
:1049F0009B000B441033DB78012B04D9FB7918465C
:104A0000FFF782FF14E0FA790E4913469B00134426
:104A10009B000B4410339B78032B09D1FA79094989
:104A200013469B0013449B000B44103302229A70E0
:104A3000FB790133FB71FB79092B9DD90837BD4602
:104A400080BD00BF4C8BFE1F80B586B000AF786084
:104A50000B46FB700A23FB750A23BB750A237B7583
:104A600000233B750023FB740023BB740A237B7473
:104A700000233B7400233B7584E03A7D6B49134669
:104A80009B0013449B000B4410339B78FB7397F9F6
:104A900015300A2B05D1FB7B002B02D13B7D7B75AA
:104AA0006DE0FB7B002B6AD07B68002B0DD07B6810
:104AB00019683A7D5D4813469B0013449B000344EC
:104AC0005B68994201D13B7DAAE0FB7B012B3BD186
:104AD0003A7D564913469B0013449B000B441B68C8
:104AE000002B18D03A7D514913469B0013449B007C
:104AF0000B441033DB783A7C9A4240D83B7D7B7480
:104B00003A7D4A4913469B0013449B000B441033E3
:104B1000DB783B7433E03A7D444913469B001344F1
:104B20009B000B441033DB78FA7C9A4227D83B7DFC
:104B3000FB753A7D3D4913469B0013449B000B4493
:104B40001033DB78FB741AE0FB7B012B17D93A7D1D
:104B5000364913469B0013449B000B441033DB780B
:104B6000BA7C9A420BD83B7DBB753A7D2F491346E0
:104B70009B0013449B000B441033DB78BB743B7DDC
:104B800001333B753B7D092B7FF677AFFB7803F054
:104B90000203002B08D197F915300A2B06D1FB78B8
:104BA00003F00103002B01D1FF2339E097F9153001
:104BB000092B02DC7B7D3B751AE097F91630092B37
:104BC00002DCBB7D3B750FE097F91730092B02DC47
:104BD000FB7D3B7508E097F91130092B02DC7B7CEB
:104BE0003B7501E0FF231BE03B7D1846FFF78CFE81
:104BF0007B68002B09D03A7D7B6819680B48134607
:104C00009B0013449B00034459603A7D07491346B7
:104C10009B0013449B000B4410330022DA703B7D51
:104C20005BB218461837BD4680BD00BF4C8BFE1FD7
:104C300080B586B000AFF860B9607A603B60BB6851
:104C40005B687B617B690233184639680622FFF78F
:104C500029FE7B690833184679680622FFF722FE91
:104C60007B69002242F008029A730022DA73FB6823
:104C70009B69F868B9689847034618461837BD46D7
:104C800080BD00BF80B586B000AFF860B9607A60C3
:104C9000FB70BB68002B12D0BB681B68002B0ED0CA
:104CA000BB681B681846F96801F062FB0346002BDD
:104CB00005D1BB681B6803F0F003E02B01D1F223A0
:104CC00067E0FB78B8681946FFF7BEFE0346FB7540
:104CD00097F91730002B01DAFB7D5AE097F917207E
:104CE0002E4913469B0013449B000B4410330222B1
:104CF0009A7097F91720294913469B0013449B008B
:104D00000B440833FA681A6097F9172013469B0082
:104D100013449B000833214A13440433184679682E
:104D20000622FFF7BFFD97F917201C4913469B0089
:104D300013449B000B4410330022DA7097F91720BC
:104D4000164913469B0013449B000B441B68002B21
:104D50001ED097F91720114913469B0013449B005E
:104D60000B441B683B6197F917200C4913469B00C5
:104D700013449B000B4400221A60FB682733F86839
:104D800039691A467B68FFF753FF386902F08AFADF
:104D900000235BB218461837BD4680BD4C8BFE1F02
:104DA00080B584B000AF78600023FB731FE0FA7B0E
:104DB000124913469B0013449B000B4410339B780D
:104DC000BB73BB7B002B0FD0FA7B0C4913469B00B7
:104DD00013449B000B4408331A687B689A4203D142
:104DE000FB7B1846FFF790FDFB7B0133FB73FB7BDE
:104DF000092BDCD91037BD4680BD00BF4C8BFE1F90
:104E000080B58AB000AFF860B9607A60FB68002BAB
:104E100001D100BEB3E07B685B892B2B03D8786897
:104E200002F040FAABE07B685B683B623B6A1033A0
:104E3000FB61FB691B889BB2B3F5807F0CD1FB69DA
:104E40001B79062B08D1FB695B79042B04D1FB6924
:104E50005B889BB2082B03D0786802F023FA8EE0BF
:104E6000FB690E3307F11802104619460422FFF7BA
:104E700019FDFB69183307F1140210461946042284
:104E8000FFF710FDFB680433002B03D0FB685B6861
:104E9000002B03D1002387F8273009E07A69FB68EB
:104EA0005B689A420CBF01230023DBB287F82730EE
:104EB000FB6903F1080297F82730002B01D001238A
:104EC00000E0022307F11801F868FFF7DBFEFB6939
:104ED000DB889BB2B3F5807F03D0B3F5007F4AD067
:104EE0004AE097F82730002B41D0022001F098FBD0
:104EF00003461A46FB69DA80FB6903F11802FB6975
:104F00000E33104619460422FFF7CCFCFB6903F16F
:104F10000E02FB680433104619460422FFF7C2FC58
:104F2000FB6903F11202FB69083310461946062299
:104F3000FFF7B8FC3B6A9A1CFB6908331046194618
:104F40000622FFF7AFFCFB6908331846B968062252
:104F5000FFF7A8FC3B6A08331846B9680622FFF73A
:104F6000A1FCFB689B69F8687968984702E0FB68D8
:104F70000433002B00E000BF786802F093F9283773
:104F8000BD4680BD90B585B000AFF860B9601346EE
:104F9000FB71FA79214913469B0013449B000B4493
:104FA00010339B78022B23D1FA791C4913469B00BE
:104FB00013449B000B441033DB78E32B18D9FA79A8
:104FC00013469B0013449B00144A13440433F868AF
:104FD000194600F063FA0346002B09D1FA790F490C
:104FE00013469B0013449B000B44103303229A701A
:104FF000FB6803F12704FA7913469B0013449B00D6
:105000000833064A13440433F868B9682246FFF7A8
:105010000FFE034618461437BD4690BD4C8BFE1F4D
:1050200080B588B000AFF860B9607A607B68BB611A
:10503000B868102102F0C4F80346002B01D0FE230B
:10504000ABE07B681B681846F96801F091F90346EC
:10505000002B02D0534BFB6196E07B681B6803F08A
:10506000F003E02B16D101233B7400237B745E23F5
:10507000BB747B6801331B7803F07F03DBB2FB74E6
:105080007B689B783B757B68DB787B7507F1100349
:10509000FB6179E07B681A68FB685B685A40FB68D3
:1050A0009B681340002B14D07B681B689BB24FF6A3
:1050B000A96293420DD0FB680C33002B07D0FB682C
:1050C000DB68002B03D0FB680C33BB6101E0FC23E1
:1050D00063E0354B1B781946344A0B469B000B4462
:1050E0009B00134410339B78012B16D9BB691A68B7
:1050F0002D4B1B7818462D4903469B0003449B000B
:105100000B445B689A4208D1274B1B78F868B96852
:105110001A46FFF737FF03463FE00023FB7528E000
:1051200097F91720214913469B0013449B000B4419
:1051300010339B78012B17D9BB69196897F9172091
:105140001A4813469B0013449B0003445B68994232
:105150000AD1FA7D144B1A70FB7DF868B9681A46BB
:10516000FFF710FF034618E0FB7DDBB20133DBB233
:10517000FB7597F91730092BD2DDF868B969BA6861
:1051800000F016F8034608E0FB682733F868B968B2
:105190001A46FB69FFF74CFD03465BB21846203701
:1051A000BD4680BDD08E0008148CFE1F4C8BFE1FA8
:1051B00080B58AB000AFF860B9607A60FB682733C9
:1051C000BB61FF2387F82730BB681B681846F96866
:1051D00001F0CEF80346002B0CD1BB681B6803F02E
:1051E000F003E02B06D0BB68002B03D0BB681B6824
:1051F000002B01D1F223CBE0B8680121FFF724FC9A
:105200000346FB7597F91730002B01DAFB7DBFE0F1
:1052100097F91720614913469B0013449B000B44E8
:1052200010339B78002B0AD197F917205B4913465E
:105230009B0013449B000B44103301229A7097F992
:105240001720564913469B0013449B000B44103310
:105250009B78012B02D07B68002B0CD1F868B968D1
:1052600000F01CF9034687F827307B68002B02D139
:1052700097F827308CE097F91720484913469B0090
:1052800013449B000B4410339B78012B15D9FA7DF6
:10529000434B1A7097F9172013469B0013449B0049
:1052A00008333E4A13440433F8687968BA69FFF753
:1052B000BFFC034687F8273068E097F91720374985
:1052C00013469B0013449B000B4410339B78012B27
:1052D0005CD10023FB617B683B6209E03B6A1B7B7E
:1052E000012B02D00123FB6105E03B6A1B683B6296
:1052F0003B6A002BF2D1FB69002B17D03B6A1B895C
:1053000003201946002201F009FE38623B6A002B97
:1053100011D0386A796802F05BF80346002B0AD096
:10532000386A01F0BFFF00233B6204E07B683B6208
:10533000386A01F0FBFF3B6A002B24D097F9172055
:10534000164913469B0013449B000B441B68002B1B
:105350000BD097F91720114913469B0013449B006B
:105360000B441B68184601F09DFF97F917200B4965
:1053700013469B0013449B000B443A6A1A600023B7
:1053800087F8273002E0FF2387F8273097F8273087
:105390005BB218462837BD4680BD00BF4C8BFE1F50
:1053A000148CFE1F80B588B000AFF860B9607A60D9
:1053B0003B600023FB7703202C21002201F0AEFD8F
:1053C000B861BB69002B01D1FF2361E0BB695B6859
:1053D0007B617B6910333B61BB8E184601F020F97D
:1053E00003461A463B69DA803B6908331846396838
:1053F0000622FFF757FA3B6912331846F96A06226C
:10540000FFF750FA7B690233184679680622FFF7E6
:1054100049FA7B6908331846B9680622FFF742FA51
:105420003B690E331846B96A0422FFF73BFA3B6921
:1054300018331846396B0422FFF734FA3B6900220F
:105440001A70002242F001025A703B69002242F0B9
:1054500008029A700022DA703B6906221A713B69D1
:1054600004225A717B69002242F008029A730022DA
:1054700042F00602DA73FB689B69F868B9699847DD
:105480000346FB77B86901F00DFF0023BB61FB7F8A
:105490005BB218462037BD4680BD00BF90B587B0CF
:1054A00004AF786039607B6803F127027B6803F101
:1054B00027047B6804330093084B01933B680293F5
:1054C0000123039378681146054A2346FFF76AFFD4
:1054D000034618460C37BD4690BD00BFD88E000865
:1054E000D08E000880B586B000AF78603960102398
:1054F000FB827B685B89102B00D866E07B685B6869
:105500003B613B699A7BDB7B1B021343FB813B695D
:105510009B7803F00103002B24D03B699B78012B7F
:105520000FD13B69DB78002B1CD13B691B795E2BCB
:1055300018D17B685B7B43F01003DAB27B685A7347
:1055400010E03B69023318462449062203F0CEFAE4
:105550000346002B06D17B685B7B43F00803DAB27D
:105560007B685A73FB89082B03D0B3F5C16F1AD03F
:105570002BE03B6893F82D3003F02003002B00D183
:1055800023E0FB8A5B429BB29BB21BB27868194650
:1055900001F016FE0346002B00D016E0786839684B
:1055A00000F0CEFC0FE03B6893F82D3003F02003B1
:1055B000002B00D109E03B682733386819467A6828
:1055C000FFF71EFC00BF002303E0786801F06AFECD
:1055D00000235BB218461837BD4680BDD08E000848
:1055E00080B58CB004AF786039607B685B68FB6124
:1055F000FB691B789BB203F00F039BB29B009BB22D
:10560000FB82FB8A5B429BB29BB21BB27868194655
:1056100001F0D6FD0346002B40F0B7807B681B8964
:10562000032B40F2B2807B685B681B787B757B7DC7
:10563000002B00F0A580082B40F0A3800123BB6164
:10564000574B1B6803F0F003E02B01D10023BB6133
:10565000534B1B681846396800F08AFE0346002B3E
:1056600001D00023BB61BB69002B03D1786801F036
:1056700019FE92E07B681B89072B00D885E07868CB
:1056800000F0D6FB0346002B03D0786801F00AFE39
:1056900083E07868242101F093FD0346002B33D08A
:1056A000B7F916307868194601F08AFD0346002BD9
:1056B00000D06EE07B681B8902201946002201F0B1
:1056C0002DFC38613B69002B00D162E038697968B4
:1056D00001F07EFE0346002B00D05AE03B695B6878
:1056E000FB61FB8A5B429BB29BB21BB238691946D5
:1056F00001F066FD0346002B00D04AE0786801F017
:10570000D1FD3B697B6008E078686FF0230101F010
:1057100057FD0346002B00D03BE07B685B68FB60D5
:105720001F4B1A68FB69DA601E4B1A68FB691A6125
:10573000FB6800221A70FB6800229A700022DA705F
:10574000FB69FF221A72FB6900229A720022DA7248
:10575000B7F916307868194601F032FD0346002B80
:105760000DD100230093012301933B6802937868D5
:105770000B490022FF2300F007FD0346FB7200E007
:1057800000BF786801F08EFD07E0786801F08AFDBF
:1057900003E0786801F086FD00BF2037BD4680BD7C
:1057A00028F1FE1F20F1FE1F80B582B000AF7860A7
:1057B0000B46FB70FB78786803211A4600F004F86A
:1057C0000837BD4680BD00BF80B588B002AF7860A5
:1057D0000B46FB701346BB7001202421002201F010
:1057E0009DFB78617B69002B40D07B685B683B61E7
:1057F0007B695B68FB60FB68FA781A70FB68BA78B3
:105800005A70FB6800221A7100225A71FB6800224C
:105810009A710022DA717B695B6803F108027B6888
:105820005B68104619461C22FFF73CF8FB68002213
:105830009A700022DA707B695B89F868194600F07B
:10584000E5FA03461A46FB685A803B69DB68BB6091
:1058500007F10802002300930123019378690021D6
:10586000FF2300F05FFD786901F01CFD1837BD468D
:1058700080BD00BF80B400AF044B054A1A60054BE1
:10588000054A1A60BD465DF8047B70471C8CFE1FFC
:10589000E0000001208CFE1FE000000280B584B013
:1058A00000AF78607868114900F064F8F860FB6830
:1058B000002B14D0FB6802225A73FB681B7C013357
:1058C000DAB2FB681A747B685B6B002B05D07B68CF
:1058D0005B6B7868054901229847002300E0FF23AD
:1058E0005BB218461037BD4680BD00BF1C8CFE1F42
:1058F00080B584B000AF78600A4B1B68FB600BE09A
:10590000FB685A687B689A4203D1F868052100F069
:1059100077F9FB681B68FB60FB68002BF0D1103740
:10592000BD4680BD188CFE1F80B485B000AF786086
:1059300039600F4B1B68FB600FE0FB685A687B689F
:105940009A4207D1FB689A683B681B689A4201D16A
:10595000FB6806E0FB681B68FB60FB68002BECD172
:10596000002318461437BD465DF8047B704700BF1E
:10597000188CFE1F80B584B000AF786039601C4B76
:105980001B68FB6078683968FFF7CEFFF860FB683A
:10599000002B01D0FB6826E0022001F001F9F8603D
:1059A000FB68002B1ED0FB687A685A603B68002BAE
:1059B00002D03B681B6800E00023FA689360FB6834
:1059C0000022DA81FB6800225A73FB6800221A73F6
:1059D000FB6800221A74064B1A68FB681A60044AB6
:1059E000FB681360FB6818461037BD4680BD00BFDA
:1059F000188CFE1F80B58AB000AFF860B9607A607D
:105A0000FB685B68FB61FB691B789BB203F00F03CB
:105A10009BB29B009BB25B429BB29BB21BB2F868ED
:105A2000194601F0CDFB0346002B03D1FB685B89CF
:105A3000072B03D8F86801F035FC88E0FB685B6849
:105A4000BB61FB685B89B869194600F0DFF9034662
:105A5000002B03D0F86801F025FC78E0B86879687D
:105A6000FFF762FF78627B6A002B03D1F86801F0D0
:105A700019FC6CE0BB691B78112B02D0162B53D09C
:105A800061E07B681A68334B1B689A422AD1BB6974
:105A90000433002B03D0BB695B68002B22D1BB69A8
:105AA0005B78002B02D1BB690A225A702A4B1B6813
:105AB0003B6213E03B6A5A68BB689A420BD13B6A6F
:105AC0009A68244B1B689A4205D0BB695B78386A98
:105AD000194600F095F83B6A1B683B623B6A002B55
