:020000040C00EE
:100000000088FE1F010200089902000899020008FA
:1000100099020008990200089902000800000000F7
:10002000000000000000000000000000990200082D
:100030009902000800000000990200083936020801
:10004000990200089902000899020008159A02080E
:10005000D99902089902000899020008990200083B
:1000600099020008000000000000000000000000ED
:100070009902000800000000990200089902000897
:1000800099020008990200089902000899020008E4
:1000900099020008990200089902000899020008D4
:1000A00099020008990200089902000899020008C4
:1000B00099020008990200089902000899020008B4
:1000C00099020008990200089902000899020008A4
:1000D0009902000899020008990200089902000894
:1000E0009902000899020008990200089902000884
:1000F0009902000899020008990200089902000874
:100100009902000899020008990200089902000863
:100110009902000899020008990200089902000853
:100120009199020871990208990200089902000841
:100130009902000899020008990200089902000833
:100140009902000899020008990200089902000823
:100150009902000899020008990200089902000813
:10016000000000000000000000000000000000008F
:1001700099020008990200089902000899020008F3
:1001800099020008990200089902000899020008E3
:1001900099020008990200089902000899020008D3
:1001A00099020008990200089902000899020008C3
:1001B000990200089902000899020008F52E020829
:1001C00099020008990200089902000899020008A3
:1001D0009902000899020008990200080000000036
:1001E00099020008D1480208990200089902000803
:1001F0006557020800000000E14802080000000006
:10020000DFF874D01D4880471D4C1E4DAC4209DA02
:1002100021686268A368043BA2BFC858D050FAE7BF
:100220000C34F3E7184B194CA34208DA19685A68E2
:100230000020043AA4BF8850FBE70833F4E71448D1
:10024000804714488047000028A7020C0088FE1F42
:100250001003000028A7020C0088FE1F0000000009
:10026000108BFE1F287E0000000000200000000010
:1002700000000020A03000000088FE1F01000208DE
:1002800048020008600200086002000878020008C6
:10029000619D02085D960208FEE70000FFFFFFFF78
:1002A000FFFFFFFFFFFFFFFFFFFFFFFFFFFFFFFF5E
:1002B000FFFFFFFFFFFFFFFFFFFFFFFFFFFFFFFF4E
:1002C000FFFFFFFFFFFFFFFFFFFFFFFFFFFFFFFF3E
:1002D000FFFFFFFFFFFFFFFFFFFFFFFFFFFFFFFF2E
:1002E000FFFFFFFFFFFFFFFFFFFFFFFFFFFFFFFF1E
:1002F000FFFFFFFFFFFFFFFFFFFFFFFFFFFFFFFF0E
:020000040C02EC
:1000000098B500AF054A4FF0005314460FCB84E873
:100010000F0008F05FFF08F0C7FF98BDC4FF032082
:1000200080B584B000AF2F4BDB6803F48033002B26
:100030003ED02D4BDB6803F00103002B02D02B4B8D
:10004000FB6002E008F0A6FFF860274B1B6803F096
:100050000403002B20D0244B9B6803F070631B0E1D
:100060000133BB60204B9B6803F4FE431B0A013342
:100070007B601D4B9B6803F4FE031B0C01333B604C
:10008000BB683A6802FB03F3FA68B2FBF3F37A68E1
:1000900002FB03F3FB600DE0134B9B6803F07F034F
:1000A00001333B60FA683B68B2FBF3F3FB6001E0AD
:1000B0000E4BFB600B4BDB68DBB20133FA68B2FB23
:1000C000F3F3FB60074B1B6903F001030133FA688C
:1000D000B2FBF3F3FB60064AFB6813601037BD46C2
:1000E00080BD00BF004600501047005000366E0132
:1000F000C0FF032080B582B000AF78607B68074AFC
:10010000934207D14FF4803000F0EAFB4FF4803087
:1001100000F062FA0837BD4680BD00BF00400440D1
:1001200080B483B000AF054B7B607B6850221A60BF
:100130000C37BD465DF8047B704700BF5455000C7A
:1001400080B485B000AF78603960074BFB60FB6816
:100150007A681A60054BFB60FB683A681A601437CE
:10016000BD465DF8047B7047F055000CF455000C5B
:1001700080B485B000AF78600C4BFB60FB68AA22AE
:100180001A600B4BFB60FB6855221A60074BFB6043
:10019000FB68A0221A607B68FB60FB68AA221A60D9
:1001A0001437BD465DF8047B704700BF5455000C02
:1001B000A8AA000C80B485B000AF7860114BFB603A
:1001C000FB68AA221A60104BFB60FB6855221A607C
:1001D0000C4BFB60FB6880221A600A4BFB60FB68DB
:1001E000AA221A60084BFB60FB6855221A607B68E4
:1001F000FB60FB6830221A601437BD465DF8047B53
:10020000704700BF5455000CA8AA000C80B483B0FE
:1002100000AF054B7B607B68F5221A600C37BD464A
:100220005DF8047B704700BF5455000C80B500AFEB
:10023000FFF7ECFF80BD00BF80B400AF044B03F5B7
:10024000805310331B681846BD465DF8047B704729
:100250000010005880B584B000AF78603960FFF7B7
:10026000D5FFFFF75DFF0023FB6011E0FB689B00FB
:100270003A6813441968FB6801339B003A681344D9
:100280001B6808461946FFF75BFFFB680233FB60FB
:10029000FB683F2BEAD97868FFF76AFF00BF064B7F
:1002A00003F5805310331B6803F00103002BF6D1D4
:1002B0001037BD4680BD00BF0010005880B582B029
:1002C00000AF7860FFF7A2FF7868FFF773FF00BF09
:1002D000054B03F5805310331B6803F00103002B1B
:1002E000F6D10837BD4680BD0010005880B485B0F7
:1002F00000AFF8600B467A60FB72FB7A9B08DBB2BA
:100300001846FB7A9B08DBB21A46FB68043253F8A6
:100310002220FB7A03F00303DB001946F8238B400D
:10032000DB4302EA0301FB68021D43F82210FB686D
:100330005A6FFB7A5B00194603238B40DB431A405C
:10034000FB685A67FB683A4A934203D0FB68394A14
:1003500093420AD1FB681A6EFB7A012101FA03F37A
:10036000DB431A40FB681A6642E07B681B78DBB20D
:100370005BB2002B3CDA7B685A68FB7A9A40FB68D8
:100380005A60FB7ADB08DBB21846FB7ADB08DBB28B
:100390001A46FB68103253F82220FB7A03F0070359
:1003A0009B00194607238B40DB4302EA0301FB68ED
:1003B00000F1100243F82210FB7ADB08DBB218468A
:1003C000FB7ADB08DBB21A46FB68103253F82220B6
:1003D0007B681B7A1946FB7A03F007039B0001FA3E
:1003E00003F342EA0301FB6800F1100243F8221014
:1003F000FB7A9B08DBB21846FB7A9B08DBB21A46F5
:10040000FB68043253F822207B681B781946FB7A7C
:1004100003F00303DB0001FA03F342EA0301FB6884
:10042000021D43F822101437BD465DF8047B704767
:10043000008E0248008F024880B400AF034B1B6857
:100440001846BD465DF8047B704700BFC0FF03201F
:1004500080B400AF034BD3F8C4301846BD465DF8F6
:10046000047B70470040005080B584B000AF7860D6
:10047000FFF7D6FD0B4B1B680B4AA2FB03239A0C1C
:100480007B6802FB03F37B600023FB6003E000BF9B
:10049000FB680133FB60FA687B689A42F7D3103738
:1004A000BD4680BDC0FF032083DE1B4380B400AF88
:1004B000034B5B681846BD465DF8047B704700BF80
:1004C0007440005080B483B000AF7860034A7B680A
:1004D000D3600C37BD465DF8047B70477440005014
:1004E000B0B584B002AF7860002000F0C5F800F02D
:1004F000B7FA7B68DB79002B0AD000F0EFFA00BF77
:1005000000F0DAFA034683F00103DBB2002BF7D1E7
:100510007B685B7A184600F029F900BFFFF798FF67
:100520000346002BFAD17B681B7A184600F072FA5A
:100530007B681B7C184600F037F97B685B7C1846AB
:1005400000F05AF97B689B7C184600F041F97B6803
:10055000DB7C184600F064F97B689B79002B0AD09D
:1005600000F0F4FA00BF00F019FB034683F001032A
:10057000DBB2002BF7D17B68DB78002B09D17B68DD
:100580009B7983F00103DBB2002B17D000F02AFB2C
:1005900014E000F017FB7B6899887B68DA787B6849
:1005A0005B781D467B681B781C467B689B780093B4
:1005B000084611462A46234600F024FB7B68DB6888
:1005C000B3F5803F03D14FF4803000F055F8FFF7CA
:1005D00027FD0837BD46B0BD80B485B000AF786058
:1005E0007B681B0FFB607B6823F07043BB60FA687D
:1005F00013465B0013449B001A46044B1344BA682D
:100600001A601437BD465DF8047B704714440050EF
:1006100080B485B000AF78607B681B0FFB607B689F
:1006200023F07043BB60FA6813465B0013449B00E1
:100630001A46084B13441A68BB681340002B14BFBA
:1006400001230023DBB218461437BD465DF8047B56
:10065000704700BF0C44005080B500AFFFF7ECFEC0
:100660000246044B5B6903F0010322FA03F31846C8
:1006700080BD00BF0046005080B483B000AF7860FA
:100680000649064BDB6823F480327B681343CB605A
:100690000C37BD465DF8047B704700BF0046005034
:1006A00080B483B000AF78600649064B9B6923F4A1
:1006B00080327B6813438B610C37BD465DF8047B49
:1006C000704700BF0046005080B483B000AF786030
:1006D0000649064B5B6A23F440327B6813434B6246
:1006E0000C37BD465DF8047B704700BF00460050E4
:1006F00080B483B000AF0346FB80FB88002B08D199
:100700000A4A0A4BDB6823F4807323F00103D360A9
:1007100007E0064A054BDB6843F4807343F00103AE
:10072000D3600C37BD465DF8047B7047104700501E
:1007300080B483B000AF0346FB7100BF094BD3F810
:10074000C43003F00803002BF8D10749064BDB68DF
:1007500023F04002FB791343CB600C37BD465DF8B4
:10076000047B7047004000500043005080B483B0C9
:1007700000AF0346FB7100BF094BD3F8C43003F050
:100780000803002BF8D10749064BDB6823F08002F1
:10079000FB791343CB600C37BD465DF8047B704793
:1007A000004000500043005080B483B000AF786038
:1007B0000649064BDB6823F0FF027B68013B1343CD
:1007C000CB600C37BD465DF8047B70470046005097
:1007D00080B483B000AF78600649064B1B6A23F0F3
:1007E00001027B68013B13430B620C37BD465DF889
:1007F000047B70470046005080B483B000AF78603F
:100800000649064B1B6923F001027B68013B134339
:100810000B610C37BD465DF8047B70470046005005
:1008200080B483B000AF78600649064B5B6923F063
:1008300001027B68013B13434B610C37BD465DF8F9
:10084000047B70470046005080B483B000AF7860EE
:100850000649064B9B6923F007027B68013B134363
:100860008B610C37BD465DF8047B70470046005035
:1008700080B483B000AF78600649064BDB6923F093
:100880003F027B68013B1343CB610C37BD465DF8EB
:10089000047B70470046005080B483B000AF78609E
:1008A0000649064B5B6A23F0FF027B68013B13435A
:1008B0004B620C37BD465DF8047B70470046005024
:1008C00080B483B000AF0346FB71044AFB795360E8
:1008D0000C37BD465DF8047B704700BF00460050F2
:1008E00080B485B000AF78607B681B0FFB607B68CD
:1008F00023F07043BB60FA6813465B0013449B000F
:100900001A46044B1344BA681A601437BD465DF8A2
:10091000047B70474846005080B485B000AF7860D3
:100920007B681B0FFB607B6823F07043BB60FA6839
:1009300013465B0013449B001A46084B13441A6885
:10094000BB681340002B14BF01230023DBB2184601
:100950001437BD465DF8047B704700BF4046005029
:1009600080B483B000AF78603960284A274B5B6958
:1009700043F00103536100BF244B1B6903F00103E3
:10098000002BF9D0214A214B5B6943F010035361DE
:100990001E493B68013B1A027B68013B1B0613435F
:1009A0004B611A4A194B5B6943F040035361174A84
:1009B000164B5B6923F010035361144A134B5B69B8
:1009C00043F48023536100BF104B1B6903F0040301
:1009D000002BF9D00D4A0D4B5B6923F001035361E5
:1009E00000BF0A4B1B6903F00103002BF9D1074A32
:1009F000064B5B6923F040035361054B0822DA6024
:100A00000C37BD465DF8047B704700BF10470050AF
:100A10006041005080B582B000AF0346FB710F4AC1
:100A20000E4B5B6843F480135360FB79012B0ED1AE
:100A30000A4A0A4B5B6823F4801353606420FFF773
:100A400013FD064A054B5B6843F4002353606420A2
:100A5000FFF70AFD0837BD4680BD00BF10470050B4
:100A600080B400AF124B1B6803F00103002B09D1C7
:100A70000F4B01225A6000BF0D4B1B6803F00103AE
:100A8000002BF9D00B4B1B6803F40073002B0AD02A
:100A9000084B4FF400729A6000BF064B1B6803F4CA
:100AA0000073002BF9D1BD465DF8047B704700BF91
:100AB000004200500044005080B400AF064B1B6859
:100AC00003F00803002B0CBF01230023DBB2184600
:100AD000BD465DF8047B70470043005080B500AF11
:100AE0004FF40000FFF7EEFC174A174BDB6923F0C9
:100AF0003003D36100BFFFF7D9FC034603F40003C2
:100B0000002BF8D04FF40030FFF7DCFC0E4B08222E
:100B10005A6000BFFFF7CAFC034603F40033002B02
:100B2000F8D04FF40020FFF7CDFC074A064BDB68F6
:100B300043F00803D36000BFFFF7B8FC034603F49B
:100B40000023002BF8D080BD00430050B0B500AFAB
:100B50000F4A0F4B5B6823F4803353600D4D0D4BF0
:100B60005B6823F4702424F0300408F013FA024682
:100B7000094BA3FB02231B0D013B1B0423436B60AA
:100B8000034A034B5B6823F400335360B0BD00BFDE
:100B900010470050004700506BCA5F6B80B400AF35
:100BA000074B1B6803F46073B3F5607F0CBF012330
:100BB0000023DBB21846BD465DF8047B704700BFDA
:100BC0001047005080B400AF054A054B5B6823F422
:100BD000803323F002035360BD465DF8047B704709
:100BE0001047005080B400AF054A054B5B6843F4E2
:100BF000803343F002035360BD465DF8047B7047C9
:100C00001047005080B586B000AFBA607B600346E5
:100C1000FB810B467B73FB891846FFF769FD7B7BE5
:100C2000012B40F08B80FB89002B09D108F0B2F931
:100C30000246544BA3FB02239B0C9B057B6102E005
:100C40004FF0C0637B617B697A6802FB03F2BB688B
:100C5000B2FBF3F37B617B694B4AA2FB03231B09C5
:100C60009B0D3B61494A494B5B6843F0010353606C
:100C700000BF464B1B6803F00103002BF9D0434A29
:100C8000424B5B6843F01003536040493F4B9A6806
:100C90003F4B13407A68013A12021A433B69013B09
:100CA0001B041A43BB68013B1B0613438B60374A86
:100CB000364B5B6843F040035360344A334B5B6808
:100CC00023F010035360314A304B5B6843F48023B8
:100CD000536000BF2D4B1B6803F00403002BF9D0B9
:100CE0002A4A2A4B5B6823F00103536000BF274B5D
:100CF0001B6803F00103002BF9D17B69254AA2FB95
:100D000003235B099B0D3B613A6A3B699A4202D21D
:100D1000386900F045F87B695B081F4AA2FB032392
:100D20005B099B0D3B613A6A3B699A4202D2386982
:100D300000F036F8386A00F033F81CE01349134B22
:100D40009B6823F07F023B6A013B13438B6000BF2B
:100D50000E4B1B6803F01003002BF9D00B4A0B4B12
:100D60005B6843F00103536000BF084B1B6803F04E
:100D70000103002BF9D0094B0522DA601837BD4674
:100D800080BD00BF83DE1B43ABAAAAAA1047005058
:100D9000FF8080F089888888B7600BB6604100507A
:100DA00080B582B000AF78600B490B4B9B6823F491
:100DB000FE027B68013B1B0413438B6000BF064BA4
:100DC0001B6803F02003002BF9D03220FFF74CFB07
:100DD0000837BD4680BD00BF1047005080B483B0C7
:100DE00000AF78607B684FF48072DA600C37BD46E4
:100DF0005DF8047B704700BF80B582B000AF7860BB
:100E00007B68104A934203D10420FFF7E5FB16E00C
:100E10007B680D4A934203D10820FFF7DDFB0EE00B
:100E20007B680A4A934203D11020FFF7D5FB06E006
:100E30007B68074A934202D10648FFF7CDFB08378B
:100E4000BD4680BD00C000400000014000400140A0
:100E5000004000480100001080B582B000AF78600B
:100E60007B68104A934203D10420FFF739FD16E056
:100E70007B680D4A934203D10820FFF731FD0EE055
:100E80007B680A4A934203D11020FFF729FD06E050
:100E90007B68074A934202D10648FFF721FD0837D5
:100EA000BD4680BD00C00040000001400040014040
:100EB000004000480100001080B582B000AF7860AB
:100EC0001020FFF7FDFC7868FFF7C6FF7868FFF792
:100ED00093FF0837BD4680BD80B584B000AF786011
:100EE0000B46FB707868FFF7E7FF7868FFF776FF3F
:100EF0007B681B68FB60FB6823F44043FB60FB7866
:100F00009B03FA681343FB607B68FA681A6010372A
:100F1000BD4680BD80B483B000AF786039603B6867
:100F20001A687B685A613B685B79C3F34013DBB294
:100F30001A057B685A603B681B79C3F30303DBB275
:100F40001A467B685A623B685B79C3F30303DBB2E2
:100F50001A467B681A623B685B79C3F30013DBB205
:100F60001A467B689A613B681B79C3F30313DBB2B3
:100F70001A467B68DA620C37BD465DF8047B704721
:100F800080B487B000AF78600B46FB701346BB702F
:100F9000FB780B2B36D801A252F823F0CD0F0208B4
:100FA000CD0F0208D70F0208D70F0208051002085C
:100FB000051002080510020805100208E10F0208DA
:100FC000ED0F0208F90F0208F90F020803233B6135
:100FD00000237B611BE00C233B6102237B6116E055
:100FE0004FF440733B6108237B6110E04FF4406392
:100FF0003B610A237B610AE04FF440533B610C23C1
:101000007B6104E000233B6100237B6100BF3B69FF
:10101000002B13D07B68D3F8A830FB603B69DB431F
:10102000FA681340FB60BA787B6902FA03F3FA6846
:101030001343FB607B68FA68C3F8A8201C37BD46E1
:101040005DF8047B704700BF80B483B000AF786068
:101050007B68D3F8603318460C37BD465DF8047BD7
:10106000704700BF80B483B000AF78607B68D3F86E
:10107000E83218460C37BD465DF8047B704700BF68
:1010800080B483B000AF78607B68D3F8F032184644
:101090000C37BD465DF8047B704700BF80B483B059
:1010A00000AF78607B68D3F8F83218460C37BD463D
:1010B0005DF8047B704700BF80B483B000AF7860F8
:1010C0007B68D3F8003318460C37BD465DF8047BC7
:1010D000704700BF80B483B000AF78607B68D3F8FE
:1010E000083318460C37BD465DF8047B704700BFD7
:1010F00080B582B000AF7860786800F003F80837F8
:10110000BD4680BD80B582B000AF78607B680B4A79
:10111000934206D10A48FFF7E3FB0948FFF75CFA60
:1011200005E00848FFF7DCFB0648FFF755FA7B6847
:101130000122C3F898230837BD4680BD0040015006
:10114000100000202000002080B584B000AF78603F
:101150007B68334A934225D13248FFF759FA034658
:10116000002B14BF01230023DBB283F00103DBB2A9
:10117000FB73FB7B03F00103FB73FB7B002B0AD0AB
:101180002848FFF7C9FB034683F00103DBB2002BBD
:1011900001D0012300E00023FB73FB7B03F001037C
:1011A000FB7324E02048FFF733FA0346002B14BFFB
:1011B00001230023DBB283F00103DBB2FB73FB7B73
:1011C00003F00103FB73FB7B002B0AD01648FFF7EB
:1011D000A3FB034683F00103DBB2002B01D0012304
:1011E00000E00023FB73FB7B03F00103FB73FB7B3D
:1011F000002B0FD0FB7B002B06D07B68D3F89833F5
:10120000002B01D0012300E00023FB73FB7B03F0E4
:101210000103FB73FB7B18461037BD4680BD00BF42
:1012200000400150100000202000002080B483B056
:1012300000AF78600B46FB701346BB707B681F4A9B
:1012400093421BD11E481E4B9A68FB789B0019469F
:101250000F238B40DB431A40BB78F97889008B4021
:10126000134383601649164B1A69FB7803F0070392
:10127000012000FA03F313430B6119E01048104BEF
:10128000DA68FB789B0019460F238B40DB431A403A
:10129000BB78F97889008B401343C3600849084B39
:1012A0001A69FB784FF4807000FA03F313430B6163
:1012B0000C37BD465DF8047B704700BF004001500D
:1012C0000049005080B483B000AF78600B46FB70DB
:1012D0007B68D3F8A023FB7822FA03F303F0010321
:1012E000002B14BF01230023DBB218460C37BD4688
:1012F0005DF8047B704700BF80B586B000AFF86032
:101300000B467A60FB72F868FFF71EFF0346002B5E
:1013100000F0F181FB7AF8681946FFF7D3FF034626
:1013200083F00103DBB2002B00F0E281FB7A7A68E4
:101330005268F968582000FB03F30B441A60FB7AEB
:101340007A689268F968582000FB03F30B4408336D
:101350001A60FB7A7A68D2681046FA68582101FB55
:1013600003F3134410331860FB7A7A68128B10462B
:10137000FA68582101FB03F3134418335860FB7AD1
:101380007A681268F968582000FB03F30B4418339D
:101390001A60FB7A7A68D27E42F44062F96858207B
:1013A00000FB03F30B4440331A60FB68B14A9342DD
:1013B00016D1FB7A012B13D8FB7A7A681269F96887
:1013C000582000FB03F30B4448331A60FB7A7A6819
:1013D0005269F968582000FB03F30B4450331A603C
:1013E0007B681B8C002B4FD17B689B7803F07003CC
:1013F000DBB2102B06D07B689B7803F07003DBB266
:10140000302B41D1FB689B4A934206D17B6893F80D
:10141000223003F00703BB7505E07B6893F82230A8
:1014200003F00303BB757B6893F822301B097B75BF
:10143000FB7AFA7AF968582000FB02F20A4440323B
:101440005168BA7DD2020A43F968582000FB03F3C1
:101450000B4440335A60BA7D7B7DF86811461A46CA
:10146000FFF7E4FEFB7AFA7AF968582000FB02F2F3
:101470000A444032126822F48062F968582000FB66
:1014800003F30B4440331A607B689B8B002B4CD1D9
:101490007B689B7803F07003DBB2202B06D07B685F
:1014A0009B7803F07003DBB2302B3ED1FB68714AAE
:1014B000934205D17B689B7F03F00703BB7504E073
:1014C0007B689B7F03F00303BB757B689B7F1B09D5
:1014D0007B75FB7AFA7AF968582000FB02F20A441D
:1014E00040325168BA7DD2010A43F968582000FBA6
:1014F00003F30B4440335A60BA7D7B7DF868114694
:101500001A46FFF793FEFB7AFA7AF968582000FB37
:1015100002F20A444032126822F40062F96858204C
:1015200000FB03F30B4440331A60FB7AF86819465A
:101530001F2200F00FF97B689B7E082B00F2D480FD
:1015400001A252F823F000BFE91602086D15020847
:1015500093150208B9150208DF15020805160208DE
:101560004F16020879160208C3160208FB7AFA7AA7
:10157000F968582000FB02F20A444032126842F037
:101580000042F968582000FB03F30B4440331A6013
:10159000ABE0FB7AFA7AF968582000FB02F20A44C1
:1015A0004032126842F08042F968582000FB03F391
:1015B0000B4440331A6098E0FB7AFA7AF9685820B5
:1015C00000FB02F20A444032126842F04042F968DD
:1015D000582000FB03F30B4440331A6085E0FB7A8C
:1015E000FA7AF968582000FB02F20A4418321268AD
:1015F00042F00062F968582000FB03F30B441833F3
:101600001A6072E0FB7AFA7AF968582000FB02F25D
:101610000A444032126842F08042F968582000FBC8
:1016200003F30B4440331A60FB7AFA7AF9685820C6
:1016300000FB02F20A441832126842F00062F968B4
:10164000582000FB03F30B4418331A604DE0FB7A7B
:10165000FA7AF968582000FB02F20A44183212683C
:1016600042F08052F968582000FB03F30B44183312
:101670001A603AE000400150FB7AFA7AF968582083
:1016800000FB02F20A444032126842F00042F9685C
:10169000582000FB03F30B4440331A60FB7AFA7ABC
:1016A000F968582000FB02F20A441832126842F02E
:1016B0008052F968582000FB03F30B4418331A607A
:1016C00013E0FB7AFA7AF968582000FB02F20A4428
:1016D0001832126842F0C052F968582000FB03F338
:1016E0000B4418331A6000E000BF0023FB7504E0D0
:1016F0000223FB7501E00123FB75FB7D18461837BB
:10170000BD4680BD80B487B000AFF8600B467A60FC
:10171000FB7200237B6114E07B697A6822FA03F391
:1017200003F00103002B09D07B695A00FB7A40F2D9
:1017300001119940FB68C43243F822107B690133E0
:101740007B617B69042BE7D91C37BD465DF8047BC0
:10175000704700BF80B487B000AFF8600B467A6076
:10176000FB7200237B6113E07B697A6822FA03F342
:1017700003F00103002B08D07B695A00FB7A01219A
:101780009940FB68CE3243F822107B6901337B61BC
:101790007B69042BE8D91C37BD465DF8047B704794
:1017A00080B485B000AFF8600B467A60FB72FB68CE
:1017B000094A934205D1FB7A08497A6841F8232007
:1017C00004E0FB7A06497A6841F823201437BD46C5
:1017D0005DF8047B704700BF00400150108BFE1F76
:1017E000308BFE1F80B588B000AF78607B68824A7E
:1017F000934202D1814BBB6101E0814BBB617868B0
:10180000FFF722FC78610023FB617B6903F0100382
:10181000002B2BD07868FFF75DFC786121E0012276
:10182000FB6902FA03F33B617A693B691340002BC1
:1018300014D0FB69DBB2786819461022FFF78AFFE3
:10184000FB699B00BA6913441B68FB60FB68002BB3
:1018500003D0FB681020984707E006E0FB690133DE
:10186000FB617B69002BDAD1C3E0C2E07B6903F046
:101870000103002B2BD07868FFF7F4FB786121E09F
:101880000122FB6902FA03F33B617A693B69134069
:10189000002B14D0FB69DBB2786819460F22FFF7E2
:1018A00059FFFB699B00BA6913441B68FB60FB6826
:1018B000002B03D0FB680120984707E006E0FB6996
:1018C0000133FB617B69002BDAD192E091E07B6907
:1018D00003F00203002B2BD07868FFF7D1FB78616F
:1018E00021E00122FB6902FA03F33B617A693B695B
:1018F0001340002B14D0FB69DBB2786819460E2226
:10190000FFF728FFFB699B00BA6913441B68FB6063
:10191000FB68002B03D0FB680220984707E006E035
:10192000FB690133FB617B69002BDAD161E060E088
:101930007B6903F00403002B2BD07868FFF7AEFB24
:10194000786121E00122FB6902FA03F33B617A69C5
:101950003B691340002B14D0FB69DBB27868194651
:101960000422FFF7F7FEFB699B00BA6913441B686A
:10197000FB60FB68002B03D0FB680420984707E05E
:1019800006E0FB690133FB617B69002BDAD130E0B3
:101990002FE07B6903F00803002B2AD07868FFF75B
:1019A0008BFB786121E00122FB6902FA03F33B61C2
:1019B0007A693B691340002B14D0FB69DBB278686D
:1019C00019460822FFF7C6FEFB699B00BA6913445B
:1019D0001B68FB60FB68002B03D0FB68082098475E
:1019E00007E006E0FB690133FB617B69002BDAD17C
:1019F000FFE72037BD4680BD00400150108BFE1F21
:101A0000308BFE1F80B584B000AFF8600B467A6063
:101A1000FB72F868FEF76EFBFB681A68FB7A9B00A6
:101A200019460F238B40DB431A407B681B68F97A09
:101A300089008B401A43FB681A60FA7A7B68596800
:101A4000FB68043243F822101037BD4680BD00BF4A
:101A500080B483B000AF78600B46FB701346BB7058
:101A6000FA78BB7803F00303D9B27B68083201F03F
:101A70000301090153F8220020F03000014343F82C
:101A800022100C37BD465DF8047B704780B483B0EC
:101A900000AF78607B681B687A68126802F5805234
:101AA000126842F0010203F580531A6000BF7B68A0
:101AB0001B6803F580531B6803F00103002BF6D16C
:101AC0000C37BD465DF8047B704700BFB0B485B0ED
:101AD00000AFF860C7E90023FB681968D7E9002365
:101AE0001C00002523460B64FB681B683A685A6497
:101AF0001437BD46B0BC704780B400AF064B1A68BF
:101B0000064B1B6903F0010302FA03F31846BD46B6
:101B10005DF8047B704700BFC0FF03200046005003
:101B200080B500AFFFF7E8FF03465B08184680BDAD
:101B300080B483B000AF78607A6844F24503134004
:101B4000002B14BF01230023DBB218460C37BD461F
:101B50005DF8047B704700BF80B483B000AF78604D
:101B60007A6842F2BA731340002B14BF012300239A
:101B7000DBB218460C37BD465DF8047B704700BFEA
:101B800080B582B000AF78607868FFF77FFF7B6830
:101B90001B684FF480621A607B681B6880229A6120
:101BA0007B681B6803F580531833194A1A607B68F9
:101BB0001B6803F58053174A1A60786800F046F8EE
:101BC000786800F0A7F87B681B6803F5805314332E
:101BD0004FF0FF321A607B681B686FF07C42C3F8DD
:101BE00010217B681B686FF07C42C3F80C217B6876
:101BF0001B686FF0C022C3F800227B681B684FF49B
:101C00000272DA637B6800221A620837BD4680BD23
:101C1000040020028020010280B584B000AF78600B
:101C2000786800F05BF9786800F008F90346FB7308
:101C30007868FFF7A5FF7B68D3E902237868FFF790
:101C400045FFFB7B18461037BD4680BD80B485B08C
:101C500000AF78600023FB6043E07B681A69FB6893
:101C60005B0113444FF000421A607B681A69FB68FD
:101C70005B01134444F2F4525A607B689B69002B69
:101C80000ED07B681A69FB685B0113447A6891691E
:101C9000FA6840F2F45000FB02F20A449A6006E04F
:101CA0007B681A69FB685B01134400229A60FB6839
:101CB0000133BB607B6893F824301A46BB689A42B4
:101CC00001D10023BB607B681A69FB685B01134488
:101CD0007A681169BA6852010A44DA60FB68013314
:101CE000FB607B6893F824301A46FB689A42B4D8AC
:101CF0007B681B687A68126903F580530C331A609D
:101D00007B68002283F827201437BD465DF8047BEA
:101D1000704700BF80B485B000AF78600023FB60DF
:101D20003AE07B685A69FB685B011344264A1A60F3
:101D30007B68DB69002B0ED07B685A69FB685B010E
:101D400013447A68D169FA6840F2F45000FB02F259
:101D50000A449A6006E07B685A69FB685B01134499
:101D600000229A60FB680133BB607B6893F82530E2
:101D70001A46BB689A4201D10023BB607B685A694E
:101D8000FB685B0113447A685169BA6852010A44DE
:101D9000DA60FB680133FB607B6893F825301A46F4
:101DA000FB689A42BDD87B681B687A68526903F564
:101DB000805310331A607B68002283F82620143782
:101DC000BD465DF8047B70470000107080B485B09C
:101DD00000AF78600023FB607B681A697B6893F82A
:101DE00027305B0113441B68BB60BB68002B02DA21
:101DF0000023FB6018E0BB6803F40043002B09D10B
:101E0000BB6803F40073002B04D0BB6803F4807339
:101E1000002B03D14FF0FF33FB6005E0BA68064B9F
:101E200013401B0C043BFB60FB6818461437BD468F
:101E30005DF8047B704700BF0000FF3F80B586B0AF
:101E400000AF7860FFF76CFE38610023FB757B689C
:101E50001B681033FB603B691A4A934203D8FB6846
:101E600008221A6029E03B69174A934203D8FB68AD
:101E70000C221A6021E03B69144A934203D8FB68A4
:101E800000221A6019E03B69114A934203D8FB68AB
:101E900004221A6011E03B690E4A934203D8FB68A2
:101EA00010221A6009E03B690B4A934203D8FB6891
:101EB00014221A6001E00223FB75FB7D18461837D7
:101EC000BD4680BDC00E16020087930300E1F505F4
:101ED00080D1F00800C2EB0B80B2E60E80B582B074
:101EE00000AF78600420FEF7EBFC0448FEF7F8FC36
:101EF0000248FEF771FB0837BD4680BD0400002094
:101F000080B487B000AFF8607B600B46FB7213466D
:101F1000BB72FB681B68FA681268126902F03C0128
:101F2000FA7AD2021143BA7A92010A4342F00102CC
:101F30001A6100237B61FB681B681B6903F00103C6
:101F4000002B07D1FB681B685B699AB27B681A801B
:101F5000002308E07B6901337B617B694FF6FE72E9
:101F60009342E8D9022318461C37BD465DF8047B2E
:101F7000704700BF80B485B000AF78600846114656
:101F80001A460346FB700B46BB7013463B807B68CA
:101F90001B683A885A617B681B687A681268126904
:101FA00002F03C01FA78D2021143BA7892010A4356
:101FB00042F003021A610023FB607B681B681B6907
:101FC00003F00103002B01D1002308E0FB6801337B
:101FD000FB60FB684FF6FE729342EED9022318466F
:101FE0001437BD465DF8047B704700BF80B582B0F2
:101FF00000AF786039607B681B687A681268D16BC3
:102000003A68120CD2430A40DA633B68C3F30E030A
:102010003B603868FFF78CFD0346002B03D03B681C
:1020200043F480333B603868FFF796FD0346002B8E
:1020300003D03B6843F400433B607B6819687B68CE
:102040001B6803F580531C331A683B681A4301F57B
:1020500080531C331A600837BD4680BD80B483B0FE
:1020600000AF786039607B681B687A681268D16B52
:102070003A68120C0A43DA633B68C3F30E033B6011
:102080007B6819687B681B6803F580531C331A68EA
:102090003B68DB431A4001F580531C331A600C3750
:1020A000BD465DF8047B704780B483B000AF7860B4
:1020B00039607B681B6803F5805314331B6803F495
:1020C0008033002B03D03B6843F480333B607B6854
:1020D0001B6803F5805314331B6803F40043002B83
:1020E00003D03B6843F400433B607B681B683A685D
:1020F000C2F3100203F5805314331A600C37BD4647
:102100005DF8047B704700BF80B483B000AF786097
:102110007B681A697B6893F827305B0113447A68FF
:1021200011697A6892F8272052010A44126842F035
:1021300000421A607B6893F827300133DAB27B687B
:1021400083F827207B6893F827207B6893F8243056
:102150009A4203D17B68002283F827200C37BD46C2
:102160005DF8047B704700BF80B483B000AF786037
:102170007B6893F826207B6883F828207B685A695F
:102180007B6893F826305B011A447B6859697B6849
:1021900093F826305B010B441B6843F0004343F483
:1021A000400313607B6893F826300133DAB27B6812
:1021B00083F826207B6893F826207B6893F82530E7
:1021C0009A4203D17B68002283F826207B68002294
:1021D0001A620C37BD465DF8047B704780B483B04B
:1021E00000AF78607B681B687A6852689A607B6889
:1021F0001B687A6892689A61002318460C37BD46BE
:102200005DF8047B704700BF80B500AF0648FEF75D
:1022100067FB0548FEF7E0F9044A044B1B6823F00E
:102220000103136080BD00BF400000200000025089
:1022300080B487B000AFF860B9607A603B6000237B
:10224000FB757B68002B04D07B6803F00303002B35
:1022500002D00223FB7513E00AE0FB681B68BA6832
:1022600012681A60BB680433BB607B68043B7B6008
:102270007B68002BF1D1FB681B689A693B681A6088
:10228000FB7D18461C37BD465DF8047B704700BFD8
:1022900080B483B000AF78600B46FB701346BB7010
:1022A0007B685A6FFB785B00194603238B40DB4346
:1022B0001A407B685A677B685A6FBB78F978490087
:1022C0008B401A437B685A670C37BD465DF8047B28
:1022D000704700BF80B584B000AFF860B9601346A6
:1022E000FB71F86800F06AF9BB685B79002B15D1C7
:1022F000FB79002B12D0BB681B79002B07D0BB6881
:102300001B68F8681946022200F016FA06E0BB685E
:102310001B68F8681946022200F09CF9FB680F4A16
:102320005A63FB684FF4A2629A63BB685B79002B27
:1023300007D1BB689B7943F00B03DBB21A46FB68FD
:10234000DA63FB684FF0FF32DA64BB681B891A4618
:10235000FB681A641037BD4680BD00BF02013F070D
:1023600080B483B000AF786039607B68DB6B23F4A6
:102370007F027B68DA637B68DA6B3B681A437B68B1
:10238000DA630C37BD465DF8047B704780B485B0D6
:1023900000AF78607B68D3F80C3103F0E063002B6A
:1023A00003D17B685B6DFB8103E07B68D3F81C3154
:1023B000FB81FB8918461437BD465DF8047B7047E6
:1023C00080B483B000AF786039607B681A6C3B687A
:1023D00003F4FE331A437B681A647B68DA6B3B684C
:1023E0005B039BB21A437B68DA630C37BD465DF82A
:1023F000047B704780B483B000AF786039607B683D
:102400001A6C3B6803F4FE33DB431A407B681A64A2
:102410007B68DA6B3B685B039BB2DB431A407B68EB
:10242000DA630C37BD465DF8047B704780B483B037
:1024300000AF78607B689B6BDBB223F07F03DBB27D
:1024400018460C37BD465DF8047B704780B483B0F6
:1024500000AF786039607B683A68DA640C37BD4653
:102460005DF8047B704700BF80B586B000AFF860B0
:10247000B9601346FB7110237B61F86800F09EF889
:10248000BB681B7A002B02D0BB681B7A7B61FB798F
:10249000002B14D0BB681B79002B09D0BB681B68CC
:1024A0001A467B69F86811461A4600F045F906E0BD
:1024B000BB681B68F86819467A6900F0CBF8BB68FE
:1024C000DB79013B5A007B695B0801331B02134334
:1024D00043F4403343F00103FA68D363BB685B798C
:1024E000013B1B0643F48172FB685A63BB689B790E
:1024F000002B09D0FB685A6BBB689B79013B1B041E
:102500001A43FB685A6308E0FB685A6BBB685B7947
:10251000013B1B041A43FB685A63FB684FF4A0623B
:102520009A63FB684FF0FF32DA64BB685B891A4636
:10253000FB681A641837BD4680BD00BF80B582B005
:1025400000AF78600B467B807B68D3F8083103F0DE
:10255000E063002B10D100BF7868FFF767FF0346E8
:10256000802BF9D078684FF40051FFF76FFF7A881D
:102570007B68C3F8802003E07A887B68C3F88021F9
:102580000837BD4680BD00BF80B485B000AF78601D
:102590007B68D3F80C3103F0E063002B03D17B6838
:1025A0005B6DFB8103E07B68D3F81C31FB81FB8909
:1025B00018461437BD465DF8047B704780B582B07D
:1025C00000AF78607B681A4A934203D07B68194A4F
:1025D000934203D1184800F0D3F916E07B68174AFC
:1025E000934203D07B68164A934203D1154800F00A
:1025F000C7F90AE07B68144A934203D07B68134A08
:10260000934202D1124800F0BBF97B680322DA60E2
:1026100000BF7B68DB6803F00103002BF9D07B6807
:102620001B6C23F00F027B681A640837BD4680BD1F
:10263000000003400002034008000340000002487D
:1026400000020248080002480040024800420248D6
:102650000840024880B58EB000AFF860B9607A607B
:10266000BB68632B5AD97B68002B57D0FDF7F4FF6A
:1026700002462F4BA3FB02235B093B62BB682C4A3B
:10268000A2FB03235B09BB604FF48063FB62012361
:10269000BB6240F2FF337B624FF480633B6322E016
:1026A0003B6A3A6B02FB03F2BB68796801FB03F3F8
:1026B000B2FBF3F3FB61FB699B0ABB61FB69C3F3EC
:1026C00009037B61BB69B3F5806F09D87A697B6ABE
:1026D0009A4205D27B697B62BB69BB623B6BFB6242
:1026E0003B6B013B3B633B6B002BD9D1FB6A013B4E
:1026F00043F40042FB681A61FB685A690D4B1340B2
:102700007A68013A92021A43BB6A013B1B041A43DE
:10271000FB685A61002387F8373002E0012387F80D
:10272000373097F8373018463837BD4680BD00BF80
:102730001F85EB51EF8000FC80B58CB000AFF860D6
:10274000B9607A60FDF788FF03463B62BB687A6830
:1027500002FB03F3FB610123FB623A6AFB699A42C5
:102760005FDD3A6AFB6992FBF3F3BB6210E0FB6A40
:102770000133FB62BB687A6802FB03F31A46FB6A0B
:1027800003FB02F3FB613A6AFB6992FBF3F3BB6262
:10279000BB6A40F2FE329342E9D83A6A7B68B96A72
:1027A00001FB03F3F96A01FB03F3B2FBF3F3BB6133
:1027B0003A6ABB6A0133796801FB03F3F96A01FBEA
:1027C00003F3B2FBF3F37B61BA687B69D31A83EA44
:1027D000E372A2EBE372B968BB69CB1A002BB8BFF6
:1027E0005B429A4202DABB6A0133BB62BB6AC3F541
:1027F0008063BB62BB6A43F48042FB681A61FB687A
:102800005A690C4B13407A68013A92021A43FB6AE8
:10281000013B1B041A43FB685A61002387F82730E9
:1028200002E0012387F8273097F827301846303721
:10283000BD4680BDEF8000FC80B485B000AFF8607D
:10284000B9603B601346FB71FB68D3F8083123F095
:10285000E062FB68C3F80821FB68D3F80821094B44
:1028600013403A681102BA681143FA7912060A4312
:102870001A43FB68C3F808211437BD465DF8047B92
:10288000704700BFC0C0FFF880B485B000AFF860EB
:10289000B9603B601346FB71FB68D3F80C3123F041
:1028A000E062FB68C3F80C21FB68D3F80C210A4BEB
:1028B00013403A681102BA681143FA7912060A43C2
:1028C000134343F08052FB68C3F80C211437BD4614
:1028D0005DF8047B704700BFC0C0FFEF80B485B0D7
:1028E00000AFF8600B467A60FB72FB68D3F80C31DE
:1028F00023F47C527B681B021A43FB68C3F80C214B
:102900001437BD465DF8047B704700BF80B485B0C6
:1029100000AFF8600B467A60FB72FB689A69FB7A3D
:10292000072101FA03F3DB431A40FB7A796801FAC5
:1029300003F31A43FB689A611437BD465DF8047BC4
:10294000704700BF80B485B000AFF8600B467A6076
:10295000FB72FB68D3F80C21FB7A072101FA03F321
:10296000DB431A40FB7A796801FA03F31A43FB68E8
:10297000C3F80C211437BD465DF8047B704700BFD7
:1029800080B582B000AF78607B68284A934218D146
:102990004FF40060FDF7A4FF00BF4FF40060FDF7A7
:1029A000BBFF0346002BF8D14FF40060FDF714FE87
:1029B00000BF4FF40060FDF72BFE0346002BF8D15B
:1029C00030E07B681A4A934214D11A48FDF788FF19
:1029D00000BF1848FDF7A0FF0346002BF9D11548AA
:1029E000FDF7FAFD00BF1348FDF712FE0346002B6A
:1029F000F9D117E07B68104A934213D10F48FDF7D5
:102A00006FFF00BF0D48FDF787FF0346002BF9D18C
:102A10000A48FDF7E1FD00BF0848FDF7F9FD034650
:102A2000002BF9D10837BD4680BD00BF0800034028
:102A30000800024880000010084002480001001011
:102A400080B584B000AF7860144B1B68002B02D1B6
:102A5000124B134A1A60114B1B68FB607B680333EF
:102A600023F003037B600D4B1A687B6813440D4A07
:102A7000934207D2094B1A687B681344074A1360D4
:102A8000FB6806E007F066F902460C2313604FF07E
:102A9000FF3318461037BD4680BD00BF408BFE1F78
:102AA000A0300020C0FF032080B400AFBD465DF819
:102AB000047B704780B483B000AF786039607B6876
:102AC0001A6C3B68DB431A407B681A640C37BD46BE
:102AD0005DF8047B704700BF80B483B000AF7860BE
:102AE00039607B68D3F80C213B68DB431A407B6874
:102AF000C3F80C210C37BD465DF8047B704700BF5E
:102B000080B483B000AF78607B68D3F8143103F0F1
:102B10000803002B14BF01230023DBB218460C3737
:102B2000BD465DF8047B704780B584B000AF786027
:102B30000023FB737B685B685B6898470346FB7305
:102B4000FB7B18461037BD4680BD00BF90B585B0F1
:102B500000AF78607B689B68FB607B685B6893F87C
:102B60002830002B4ED032E0FB685A69FB681B69A5
:102B70009A4211D2FB685A68FB685B69D4187B687B
:102B80001B681846FFF700FD0346DBB22370FB68A5
:102B90005B695A1CFB685A61FB685A69FB681B69D0
:102BA0009A4214D1FB6800225A767B681B6818464B
:102BB0004FF0C041FFF790FF7B685B689B68002B7C
:102BC00004D07B685B689B6898470BE00AE07B68F1
:102BD0001B681846FFF794FF034683F00103DBB23E
:102BE000002BC1D1FB685A69FB681B699A423AD233
:102BF000FB681A69FB685B69D31A7868194600F0AC
:102C000035F830E0FB685A69FB681B699A4211D2BB
:102C1000FB685A68FB685B69D4187B681B681846B8
:102C2000FFF7B2FC0346DBB22370FB685B695A1CFA
:102C3000FB685A61FB685A69FB681B699A4212D1AA
:102C4000FB6800225A767B681B6818464FF44041A7
:102C5000FFF730FF7B685B689B68002B03D07B68C5
:102C60005B689B6898471437BD4690BD80B584B0BB
:102C700000AF786039600023FB607B685B6893F885
:102C800028301A4601239340BB603A68BB689A42D9
:102C900003D23B68013BFB6002E0BB68013BFB6089
:102CA0007B681A687B685B6893F828301046194681
:102CB000FA68FFF713FE1037BD4680BD80B400AF41
:102CC000044BDB6803F4E0631B0A1846BD465DF85D
:102CD000047B704700ED00E080B483B000AF034692
:102CE000FB7197F90730002B0BDB084997F9073088
:102CF0005B09FA7902F01F02012000FA02F241F8A2
:102D000023200C37BD465DF8047B704700E100E0EE
:102D100080B483B000AF03463960FB7197F9073088
:102D2000002B0ADB0D4997F907303A68D2B29200BE
:102D3000D2B20B4483F800230AE00949FB7903F07F
:102D40000F03043B3A68D2B29200D2B20B441A7617
:102D50000C37BD465DF8047B704700BF00E100E022
:102D600000ED00E080B489B000AFF860B9607A602F
:102D7000FB6803F00703FB61FB69C3F10703062B44
:102D800028BF0623BB61FB690633062B02D9FB690A
:102D9000013B00E000237B61BB69012202FA03F3DF
:102DA0005A1EBB681A407B699A407B69012101FA6F
:102DB00003F3591E7B680B40134318462437BD4666
:102DC0005DF8047B704700BF80B483B000AF7860CB
:102DD0000B46FB701346BB70F878FB787A680633B5
:102DE0009B0013445B6823F00702BB781A437968A1
:102DF000831D9B000B445A600C37BD465DF8047B75
:102E0000704700BF80B582B000AF786039607868E5
:102E100039680122FFF728FB0837BD4680BD00BF97
:102E200080B483B000AF78607B681B6C23F00F0325
:102E300043F002027B681A640C37BD465DF8047BE0
:102E4000704700BF80B582B000AF0023FB712348FC
:102E50000221234AFDF74AFA22482349FFF7D2FF0D
:102E6000204800210222FFF7AFFF1E481021042254
:102E70000123FFF7E1FC1B48002104220023FFF798
:102E800003FD1848FFF7CCFF18480921184AFDF741
:102E90002DFA144810210222FFF738FD11481021A5
:102EA0000522FFF74FFD0F4813210522FFF74AFDCA
:102EB000FFF704FF034618463F210022FFF752FFA9
:102EC00003465F201946FFF723FF5F20FFF704FF4B
:102ED000FB7918460837BD4680BD00BF0084024814
:102EE000E0A002080002024890A002080081024807
:102EF0009CA0020880B500AF0148FFF727FE80BD07
:102F00000088FE1F80B483B000AF78600B46FB7072
:102F1000FB7801229A407B68DA600C37BD465DF889
:102F2000047B704780B483B000AF78607B68012277
:102F3000DA600C37BD465DF8047B704780B483B01F
:102F400000AF78607B6802221A610C37BD465DF8DD
:102F5000047B704780B483B000AF78600B467B8001
:102F60007A887B685A630C37BD465DF8047B7047EE
:102F700080B483B000AF78600B467B807A887B6832
:102F8000DA630C37BD465DF8047B704780B483B0CC
:102F900000AF786039607B683A681A610C37BD46CB
:102FA0005DF8047B704700BF80B483B000AF7860E9
:102FB0007B681B6F9BB218460C37BD465DF8047BDF
:102FC000704700BF80B483B000AF78600B46FB70E1
:102FD0007B68D3F8A420FB78012101FA03F31A439C
:102FE0007B68C3F8A4200C37BD465DF8047B7047AE
:102FF00080B483B000AF78600B46FB70FB78012291
:103000009A407B68C3F8B0200C37BD465DF8047B5E
:10301000704700BF80B584B000AF78600023FB73B9
:103020007B6893F8263083F00103DBB2002B09D0D4
:103030007B6893F82130002B04D1786800F05EF8AB
:103040000346FB73FB7B18461037BD4680BD00BFAF
:1030500080B582B000AF78607B6893F82130002B98
:1030600005D17B685B6918460021FFF7C1FF08376F
:10307000BD4680BDF0B587B000AF786000237B61AE
:103080007B6893F82130002B31D17B685B6918464F
:10309000FFF78AFF034601333B617B68DB691B79DD
:1030A000C3F30303DBB2FB603B691A464FF0000336
:1030B000114901FB03F0002101FB02F101440E481C
:1030C000A2FB002319440B46F968C1F12001C1F1AC
:1030D0002006A1F1200022FA01F403FA06F6344397
:1030E00023FA00F0044323FA01F523467B617B6950
:1030F00018461C37BD46F0BD711CC7B180B584B001
:1031000000AF78607B681B69184601F0FFFB03463F
:10311000FB737B681B699A687B681B7E10461946A7
:10312000FFF7F0FE7B685A697B68DB691046194639
:10313000FDF7F0FE786800F02DF87B6893F82530F5
:10314000002B0FD07B685A697B6893F820301046BB
:1031500000211A46FDF714FF7B685B6918460021C1
:10316000FFF730FF7B685B691846FFF7E7FE7B6877
:10317000012283F826207B6893F82430002B04D0AA
:103180007B685B691846FFF7CDFEFB7B184610375E
:10319000BD4680BD80B582B000AF78607B685A695B
:1031A0007B685B8C10461946FFF7D4FE7B685B6931
:1031B00018460021FFF7DCFE7B681B699A687B6874
:1031C000DB6810461946FFF7E1FE0837BD4680BDB3
:1031D00080B400AF044BDB6803F4E0631B0A1846BD
:1031E000BD465DF8047B704700ED00E080B483B01D
:1031F00000AF03463960FB7197F90730002B0ADBFB
:103200000D4997F907303A68D2B29200D2B20B4416
:1032100083F800230AE00949FB7903F00F03043B1C
:103220003A68D2B29200D2B20B441A760C37BD463D
:103230005DF8047B704700BF00E100E000ED00E0B6
:1032400080B489B000AFF860B9607A60FB6803F0C1
:103250000703FB61FB69C3F10703062B28BF0623A5
:10326000BB61FB690633062B02D9FB69013B00E019
:1032700000237B61BB69012202FA03F35A1EBB687B
:103280001A407B699A407B69012101FA03F3591EB8
:103290007B680B40134318462437BD465DF8047B1A
:1032A000704700BF80B582B000AF78607B68013B9B
:1032B000B3F1807F01D301230FE00A4A7B68013B11
:1032C00053604FF0FF303F21FFF790FF054B002286
:1032D0009A60044B07221A60002318460837BD463F
:1032E00080BD00BF10E000E090B486B000AF786011
:1032F0000023FB736B497A681346DB0013449B0081
:103300000B4418331B68BB60674B1B68002B09D14B
:103310007A681346DB0013449B00624A1344624AF6
:103320001360BBE0604B1B687B61BB683B61ABE03B
:103330007B699B691A463B699B1A3B613B69002B81
:103340007ADC7B695B68002B26D07B6959687A68D8
:103350001346DB0013449B00524A13440B607B6905
:10336000596850487A681346DB0013449B000344B5
:1033700059604C497A681346DB0013449B000B44A8
:103380007A691A607A681346DB0013449B00454A49
:103390001A447B695A601CE0434B196841487A68BB
:1033A0001346DB0013449B00034419603E4B19682D
:1033B0007A681346DB0013449B003A4A13444B607F
:1033C0007A681346DB0013449B00364A1344364A9E
:1033D000136034497A681346DB0013449B000B44A6
:1033E0001B689A693B69D1182E487A681346DB003E
:1033F00013449B000344183319602A497A68134622
:10340000DB0013449B000B44196826487A68134676
:10341000DB0013449B0003441B689869214C7A68C5
:103420001346DB0013449B00234418331B68C31A64
:103430008B610123FB7324E03B69002B21DD7B6959
:103440001B68002B1DD117497A681346DB00134413
:103450009B000B447A695A607A681346DB00134478
:103460009B00104A1A447B691A6039690D487A68D2
:103470001346DB0013449B000344183319600123F7
:10348000FB737B691B687B617B69002B06D0FB7B30
:1034900083F00103DBB2002B7FF44AAF1837BD463F
:1034A00090BC70472001FF1F608BFE1F80B485B069
:1034B00000AF78607A681346DB0013449B00294A0A
:1034C0001344FB60FB685B68002B07D1FB681B683B
:1034D000002B03D1244B00221A603DE0FB685B689F
:1034E000002B14D1FB681B681F4A13601E4B1B681E
:1034F00000225A601C4B1B681B4A12689169FA68CB
:1035000092690A449A61FB6800221A6024E0FB6811
:103510001B68002B07D1FB685B6800221A60FB6800
:1035200000225A6018E0FB685B68FA6812681A604B
:10353000FB681B68FA6852685A60FB681B68FA6887
:1035400012689169FA6892690A449A61FB680022DC
:103550001A60FB6800225A601437BD465DF8047B90
:10356000704700BF2001FF1F608BFE1F80B582B037
:1035700000AF2F4B1B687B6050E07B6893F82030D6
:10358000002B13D07B685B691846FFF78FFF7B68C1
:1035900000225A737B685B691A4601239340DA4321
:1035A000244B1B681340234A136034E07B681B7B69
:1035B000002B12D17B685B7B012B2CD17B685B6974
:1035C0001846FFF773FF7B6802225A737B689B687B
:1035D0007A681269104698471DE07B681B7B012BB7
:1035E00018D17B685B7B012B15D17B685B69184622
:1035F000FFF75CFF7B68DA697B689A617B685B69CF
:103600001846FFF771FE7B689B687A68126910465E
:10361000984700E009E0064B1B687B607B68002B45
:1036200003D07B689B69002BA7D00837BD4680BDBF
:10363000608BFE1F648BFE1F80B582B000AF0E4B07
:103640001B687B600D4B1B6801330C4A13607B6861
:10365000002B0ED07B689B69012B05D97B689B6989
:103660005A1E7B689A6104E07B6800229A61FFF72A
:103670007DFF0837BD4680BD608BFE1F688BFE1F37
:1036800080B584B000AF78600023FB737B681B7843
:1036900083F00103DBB2002B21D0134B00221A6010
:1036A0004FF4B460FFF7FEFD0346FB73FB7B012B79
:1036B00015D0FFF78DFD034618463F210022FFF786
:1036C000BFFD03464FF0FF301946FFF78FFD074B54
:1036D00000221A607B6801221A700023FB73FB7BB7
:1036E00018461037BD4680BD608BFE1F648BFE1FE1
:1036F00080B489B000AFF8607A603B600B46FB7223
:103700000023FB610023BB6100237B61FB68092B65
:1037100002D80023FB617BE00023BB6175E0BB693D
:1037200001229A403E4B1B681340002B6AD1BB69B3
:1037300001229A403A4B1B681343394A13603949B6
:10374000BA691346DB0013449B000B441033BA697B
:103750005A603449BA691346DB0013449B000B449A
:103760000833FA7A1A712F49BA691346DB001344F9
:103770009B000B44083302225A71FB682A4AA2FBC1
:103780000323DB087B617B69591C2648BA69134611
:10379000DB0013449B000344183319602149BA69C4
:1037A0001346DB0013449B000B4418337A695A60BC
:1037B0001C49BA691346DB0013449B000B440833D1
:1037C0007A681A601749BA691346DB0013449B00F4
:1037D0000B4410333A681A601249BA691346DB0089
:1037E00013449B000B4400225A600E49BA691346E9
:1037F000DB0013449B000B4400221A60BB690133B9
:10380000FB6105E0BB690133BB61BB69002B86D05E
:10381000FB6918462437BD465DF8047B704700BF3E
:10382000648BFE1F2001FF1FCDCCCCCC80B584B0B3
:1038300000AF78600123FB737B685A1E1A49134658
:10384000DB0013449B000B4408335B79022B26D129
:103850007B685A1E7B68591E13480B46DB000B44DD
:103860009B00034418335B68591C0F481346DB0068
:1038700013449B000344183319607B685A1E0A499D
:103880001346DB0013449B000B44083301225A719A
:103890007B68013B1846FFF727FD0023FB73FB7B8A
:1038A00018461037BD4680BD2001FF1F80B400AF11
:1038B000034B1B681846BD465DF8047B704700BF8C
:1038C000688BFE1F80B483B000AF78600B46FB703E
:1038D0007B681B6C23F0C002FB789B01DBB21A43B0
:1038E0007B681A640C37BD465DF8047B704700BFE7
:1038F00080B483B000AF78600B46FB70FB7840F279
:1039000001129A407B68C3F8A0230C37BD465DF8CE
:10391000047B704780B485B000AFF8600B467A60D6
:10392000FB72FB7AFA68582101FB03F313447A68AF
:103930001A601437BD465DF8047B704780B485B0CB
:1039400000AFF8600B467A60FB72FB7AFA68582188
:1039500001FB03F3134408337A681A601437BD4639
:103960005DF8047B704700BF80B485B000AFF8609D
:103970000B467A60FB72FB7AFA68582101FB03F36D
:10398000134418337A685A601437BD465DF8047BD7
:10399000704700BF80B584B000AF78607B685B681B
:1039A0005B6898470346FB73FB7B18461037BD46A0
:1039B00080BD00BF80B586B000AFF860B9607A60A6
:1039C0000123FB75FB685B6893F88430012B06D1FB
:1039D000F868B9687A6800F021F80346FB75FB7D4A
:1039E00018461837BD4680BD80B586B000AFF86078
:1039F000B9607A600123FB75FB685B6893F88530DA
:103A0000012B06D1F868B9687A6800F0DBF8034644
:103A1000FB75FB7D18461837BD4680BD80B588B064
:103A200000AFF860B9607A600423FB77FB689B689D
:103A30007B61FB685B6893F88430012B40F0BC80AD
:103A40007B6993F82030DBB283F00103DBB2002BFB
:103A500000F0B080BB68002B00F0A9807B68002BD1
:103A600000F0A5807B68B3F5805F80F0A0807B6963
:103A70007A685A607B6900229A607B69012283F828
:103A800020207B6993F82130DBB2002B29D0FB6822
:103A9000DB681A68FB685B7F1946582303FB01F358
:103AA000134418331B683B613B6923F4C06343F440
:103AB00080633B61FB68DB681A68FB685B7F1946C3
:103AC000582303FB01F3134418333A691A60FB6867
:103AD0009B681B7FDBB21A464FF6FB731340BB613A
:103AE00025E07B69BA689A61FB68DB681A68FB6845
:103AF0005B7F1946582303FB01F3134418331B68FB
:103B00003B613B6923F4C0633B61FB68DB681A6877
:103B1000FB685B7F1946582303FB01F313441833FA
:103B20003A691A60FB689B681B7FDBB2BB61FB686C
:103B30001B6818464FF48061FEF742FCFB68DB68A7
:103B40001A68FB685B7F104619467A68FFF70CFF1E
:103B5000FB68DB681968FB685A7F7B699B690846CC
:103B600011461A46FFF7D6FEFB681A687B691B7F71
:103B7000DBB210461946FFF7A5FEFB68DB68186844
:103B8000FB68597FFB681A68BB6920339B001344AC
:103B90001A46FFF7D3FE0023FB77FB68DB681A6841
:103BA000FB685B7F10461946FFF7A2FE04E0032383
:103BB000FB7701E00223FB77FB7F18462037BD46E9
:103BC00080BD00BF80B586B000AFF860B9607A6094
:103BD0000423FB75FB689B683B61FB685B6893F89B
:103BE0008530012B3CD10223FB753B69DB7FDBB2C7
:103BF00083F00103DBB2002B30D03B6993F8203017
:103C0000DBB283F00103DBB2002B27D0BB68002BB3
:103C100021D07B68002B1ED07B68B3F5805F1AD261
:103C20003B690122DA773B69BA685A613B690F4AFE
:103C30009A613B697A685A603B69012283F82120C6
:103C40003B69002283F82220F868796800F068F860
:103C50000346FB7504E00323FB7501E00223FB75BB
:103C6000FB7D18461837BD4680BD00BF6C88FE1F1F
:103C700080B586B000AFF860B9607A603B6002231F
:103C8000FB75FB689B683B613B691B7FDBB2002BCC
:103C90003FD1BB68002B38D07B68002B35D03B6808
:103CA000002B32D03B69DB7FDBB283F00103DBB258
:103CB000002B29D03B6993F82030DBB283F001035D
:103CC000DBB2002B20D03B690122DA773B697A68AE
:103CD0005A613B69BA689A613B693A685A603B69C4
:103CE000002283F821203B69002283F82220FB6810
:103CF0005B6893F88530012B06D1F868396800F0CD
:103D00000FF80346FB7503E002E00323FB7502E0B6
:103D100001E00123FB75FB7D18461837BD4680BDC9
:103D200080B584B000AF786039607B689B68FB60C9
:103D3000FB6800221A61FB683A68DA607B681B68DE
:103D4000184600F047F87B681B6818464FF440415E
:103D5000FEF736FB7B68DB6819687B681A7FFB68B7
:103D6000DB68084611461A46FFF7FEFD7B68DB68F4
:103D700019687B681A7F7B681B68543308461146B4
:103D80001A46FFF7C7FD7B68DB6819687B681A7FF6
:103D9000FB685B69084611461A46FFF7CFFD002312
:103DA000FB727B68DB681A687B681B7F10461946CC
:103DB000FFF79EFDFB689A69FB685B6878681146AF
:103DC0001A46FFF7F7FD0346FB72FB7A18461037D9
:103DD000BD4680BD80B582B000AF78607868FEF7E0
:103DE000D5FA7868FEF7D2FA0837BD4680BD00BF25
:103DF00080B483B000AF78600B46FB701346BB7095
:103E0000F878FB787A6806339B0013445B6823F0EC
:103E10000702BB781A437968831D9B000B445A60E4
:103E20000C37BD465DF8047B704700BF80B483B09B
:103E300000AF78600B46FB707B685B6B23F07062B1
:103E4000FB78013B1B061A437B685A630C37BD465F
:103E50005DF8047B704700BF80B483B000AF78602A
:103E60000B46FB707B685B6B23F47C12FB78013B99
:103E70001B041A437B685A630C37BD465DF8047B0C
:103E8000704700BF80B483B000AF78607B689B6BE5
:103E9000DBB223F07F03DBB218460C37BD465DF87A
:103EA000047B704780B483B000AF786039603B68B2
:103EB0004FF480329A407B689A660C37BD465DF8B5
:103EC000047B704780B485B000AFF860B9607A6059
:103ED000FB685B6923F05042BB681A437B681A4356
:103EE000FB685A611437BD465DF8047B704700BF1C
:103EF00080B483B000AF78600B46FB707B681B6CAE
:103F000023F00F02FB781A437B681A640C37BD4616
:103F10005DF8047B704700BF80B582B000AF786069
:103F20003960786839680122FEF7D4F90837BD4650
:103F300080BD00BF80B582B000AF78607868012195
:103F4000FFF7D6FF0837BD4680BD00BF80B483B001
:103F500000AF78607B685B6B43F001027B685A635B
:103F60000C37BD465DF8047B704700BF80B483B05A
:103F700000AF786039607B685B6923F4FE423B6880
:103F8000013B9B02134343F480727B685A610C37F8
:103F9000BD465DF8047B704780B483B000AF7860A5
:103FA0007B68DB6B23F008027B68DA630C37BD4665
:103FB0005DF8047B704700BF80B584B000AFF86047
:103FC000B9607A60F868B9687A68FFF77BFF1037E4
:103FD000BD4680BD80B582B000AF78600B46FB70F7
:103FE000FB7878681946FFF721FF0837BD4680BD8A
:103FF00080B582B000AF78600B46FB70FB787868C4
:104000001946FFF729FF0837BD4680BD80B582B04D
:1040100000AF78600B46FB701346BB70F878FB78F6
:104020007A6806339B0013445B6823F0500343F027
:1040300010027968831D9B000B445A60FA78BB78A4
:10404000786811461A46FFF7D3FE0837BD4680BD93
:1040500080B582B000AF0023FB71424800F002FC43
:104060000346FB71FB79002B76D13F4803213F4A81
:10407000FDF742F93C4803210122FDF743FB3A4892
:1040800003213B4AFDF78CFB37480221394AFDF7F3
:1040900033F9354802210122FDF734FB3248022171
:1040A000354AFDF77DFB35483549FFF735FF334885
:1040B000FFF772FF3148FFF749FF30480821FFF74B
:1040C00089FF2E481821FFF793FF2C48002100227A
:1040D000FFF772FF29480221FFF748FF294807210F
:1040E000294AFCF703F9254800210222FFF78EFF39
:1040F0002248FFF71FFF23480821244AFCF7F6F85F
:1041000020480921224AFCF7F1F822480321224ADB
:10411000FCF7ECF819484FF48031FEF721F91D48FF
:1041200004211E4AFCF7E2F8144804210122FEF79C
:10413000EDFB124808210022FEF7E8FB0F480C2196
:104140000022FEF7E3FB0D4810210222FEF7DEFB02
:104150000A480121FFF7A6FEFB7918460837BD463D
:1041600080BD00BFF489FE1F00800150A488FE1F9F
:10417000A1410208C888FE1FD94102080040024838
:104180009888FE1F00830248708BFE1F7088FE1FF8
:1041900004A102080085024820A102088488FE1FAD
:1041A00080B582B000AF0346FB71FB79012B0BD1C8
:1041B00000BF0748FFF766FE0346802BF9D0054B8A
:1041C0009B68002283F820200837BD4680BD00BFD1
:1041D000004002481089FE1F80B582B000AF034640
:1041E000FB71FB79012B12D10A484FF44041FEF7D5
:1041F00001F9094B9B68002283F82120064B9B683C
:10420000012283F82220044B9B680022DA770837CA
:10421000BD4680BD004002481089FE1F80B582B0B7
:1042200000AF0023FB71454800F01CFB0346FB7107
:10423000FB79002B7DD142480021424AFDF75CF812
:104240003F4800210122FDF75DFA3D4800213E4A2A
:10425000FDF7A6FA3A4801213C4AFDF74DF83848E7
:1042600001210122FDF74EFA35480121384AFDF7B8
:1042700097FA38483849FFF74FFE3648FFF766FE91
:1042800034480821FFF7A6FE32482021FFF7B0FE90
:10429000304800210022FFF78FFE2E480221FFF751
:1042A00065FE2E4804212E4AFCF720F829480021FB
:1042B0000022FFF7ABFE2748FFF73CFE2748052109
:1042C000284AFCF713F825480B21274AFCF70EF87B
:1042D00022480621254AFCF709F81E484FF4803190
:1042E000FEF73EF81D480E21214AFBF7FFFF1B4851
:1042F0000F21204AFBF7FAFF1F480E211F4AFBF748
:10430000F5FF144804210022FEF700FB11480821A4
:104310000122FEF7FBFA0F480C210122FEF7F6FA04
:104320000C4810210222FEF7F1FA0A480021FFF79B
:10433000B9FDFB7918460837BD4680BD048AFE1FCB
:10434000004001506489FE1F814302088889FE1FD6
:10435000B9430208000002485889FE1F0080024845
:10436000848BFE1F3089FE1FE0A10208FCA1020819
:104370004489FE1F20A20208008302483CA20208D2
:1043800080B582B000AF0346FB71FB79012B0BD1E6
:1043900000BF0748FFF776FD0346802BF9D0054B99
:1043A0009B68002283F820200837BD4680BD00BFEF
:1043B00000000248D089FE1F80B582B000AF0346DE
:1043C000FB71FB79012B12D10A484FF44041FEF7F3
:1043D00011F8094B9B68002283F82120064B9B684B
:1043E000012283F82220044B9B680022DA770837E9
:1043F000BD4680BD00000248D089FE1F80B400AFDA
:10440000044BDB6803F4E0631B0A1846BD465DF805
:10441000047B704700ED00E080B483B000AF03463A
:10442000FB7197F90730002B0BDB084997F9073030
:104430005B09FA7902F01F02012000FA02F241F84A
:1044400023200C37BD465DF8047B704700E100E097
:1044500080B483B000AF0346FB7197F90730002B9F
:104460000CDB094997F907305B09FA7902F01F0262
:10447000012000FA02F2603341F823200C37BD46D8
:104480005DF8047B704700BF00E100E080B483B0BA
:1044900000AF03463960FB7197F90730002B0ADB48
:1044A0000D4997F907303A68D2B29200D2B20B4464
:1044B00083F800230AE00949FB7903F00F03043B6A
:1044C0003A68D2B29200D2B20B441A760C37BD468B
:1044D0005DF8047B704700BF00E100E000ED00E004
:1044E00080B489B000AFF860B9607A60FB6803F00F
:1044F0000703FB61FB69C3F10703062B28BF0623F3
:10450000BB61FB690633062B02D9FB69013B00E066
:1045100000237B61BB69012202FA03F35A1EBB68C8
:104520001A407B699A407B69012101FA03F3591E05
:104530007B680B40134318462437BD465DF8047B67
:10454000704700BF90B583B000AF78607B68596852
:104550007B6893F821207B680833084611461A4689
:10456000FBF7C4FE7B6819687B68DA7F7B681433CD
:10457000084611461A46FDF745FA7B681A687B68BB
:1045800093F82030104619460122FDF761FA7B6846
:104590001C7FFFF733FF01467B685B7F1A467B6811
:1045A0009B7F084611461A46FFF79AFF024663B200
:1045B00018461146FFF76AFF7B6893F82230002BFC
:1045C0000BD07B681B7F5BB21846FFF741FF7B680F
:1045D0001B7F5BB21846FFF71FFF002318460C37FE
:1045E000BD4690BD80B400AF044BDB6803F4E063CC
:1045F0001B0A1846BD465DF8047B704700ED00E0DD
:1046000080B483B000AF0346FB7197F90730002BED
:104610000BDB084997F907305B09FA7902F01F02B2
:10462000012000FA02F241F823200C37BD465DF864
:10463000047B704700E100E080B483B000AF034624
:104640003960FB7197F90730002B0ADB0D4997F9A8
:1046500007303A68D2B29200D2B20B4483F80023FA
:104660000AE00949FB7903F00F03043B3A68D2B230
:104670009200D2B20B441A760C37BD465DF8047B2B
:10468000704700BF00E100E000ED00E080B489B0B9
:1046900000AFF860B9607A60FB6803F00703FB6164
:1046A000FB69C3F10703062B28BF0623BB61FB6927
:1046B0000633062B02D9FB69013B00E000237B6136
:1046C000BB69012202FA03F35A1EBB681A407B69D8
:1046D0009A407B69012101FA03F3591E7B680B4064
:1046E000134318462437BD465DF8047B704700BF6E
:1046F00080B582B000AF78607B681B785BB21846EB
:10470000FFF77EFF0837BD4680BD00BF90B583B080
:1047100000AF78607B681C78FFF764FF01467B6818
:104720005B781A467B689B78084611461A46FFF765
:10473000ADFF024663B218461146FFF77DFF7B6866
:10474000DB78002B02D07868FFF7D2FF00231846F1
:104750000C37BD4690BD00BF80B400AF044BDB6892
:1047600003F4E0631B0A1846BD465DF8047B7047FE
:1047700000ED00E080B483B000AF0346FB7197F911
:104780000730002B0BDB084997F907305B09FA79F2
:1047900002F01F02012000FA02F241F823200C3738
:1047A000BD465DF8047B704700E100E080B483B053
:1047B00000AF03463960FB7197F90730002B0ADB25
:1047C0000D4997F907303A68D2B29200D2B20B4441
:1047D00083F800230AE00949FB7903F00F03043B47
:1047E0003A68D2B29200D2B20B441A760C37BD4668
:1047F0005DF8047B704700BF00E100E000ED00E0E1
:1048000080B489B000AFF860B9607A60FB6803F0EB
:104810000703FB61FB69C3F10703062B28BF0623CF
:10482000BB61FB690633062B02D9FB69013B00E043
:1048300000237B61BB69012202FA03F35A1EBB68A5
:104840001A407B699A407B69012101FA03F3591EE2
:104850007B680B40134318462437BD465DF8047B44
:10486000704700BF90B583B000AF78607B681B7A5B
:1048700083F00103DBB2002B24D07B681B68184651
:10488000FCF736FC7B685C7AFFF766FF01467B68C5
:104890005B681B781A467B685B685B780846114644
:1048A0001A46FFF7ADFF024663B218461146FFF7FE
:1048B0007DFF7B685B7A5BB21846FFF75BFF7B6826
:1048C00001221A72002318460C37BD4690BD00BF66
:1048D00080B500AF0148FCF785FF80BD0040015066
:1048E00080B500AF0148FCF77DFF80BD008001501E
:1048F00080B483B000AF78607B684FF48072DA6078
:104900000C37BD465DF8047B704700BF80B582B0B0
:1049100000AF78607B685B7B83F00103DBB2002B28
:104920000FD07B689A687B681B7B10461946FCF7A2
:10493000D3FA7B689B681846FFF7DAFF7B68012291
:104940005A73002318460837BD4680BD80B483B033
:1049500000AF0346FB710949084B03F58053183338
:104960001B6823F00F02FB791A4301F580531833BB
:104970001A600C37BD465DF8047B70470010005884
:1049800080B400AF0749074B03F5805318331B6809
:1049900023F4004201F5805318331A60BD465DF8D8
:1049A000047B70470010005880B400AF0749074BE4
:1049B00003F5805318331B6843F4004201F580531C
:1049C00018331A60BD465DF8047B7047001000582C
:1049D00080B483B000AF786039607B681B683A6848
:1049E0009A610C37BD465DF8047B704780B584B092
:1049F00000AF78600023FB727B681B7883F00103B3
:104A0000DBB2002B4CD0294B00225A60284B0022ED
:104A10005A600120FFF79AFFFFF7C6FFFDF7F4FB8E
:104A20002448FDF7DBFB0023FB6005E0F86800F09D
:104A300043F9FB680133FB60FB68032BF6D90020C8
:104A4000FFF784FFFB7A002B25D100F08BF903469A
:104A5000FB72FB7A002B1ED1154B5B68002B06D135
:104A6000134B00229A60124B134A1A6013E000F0B5
:104A7000D1F90F4B1A680E4B5B68D31AB3F5805F00
:104A800001D00123FB720A4B1B680C4A934202D9E6
:104A9000074B094A1A60FFF773FF7B6801221A70FF
:104AA000FB7A18461037BD4680BD00BF988BFE1FAD
:104AB000208AFE1F30A302080000010CFFFF010C3A
:104AC00080B586B000AF03463960FB801346BB80DB
:104AD000FB880833124A13443B61BB883869396844
:104AE0001A4605F063F90346002B14BF0123002387
:104AF000FB730023FB820AE0FB8A3A691344FA8ABB
:104B000039680A4412781A70FB8A0133FB82FA8AE8
:104B1000BB889A42F0D3FB7B18461837BD4680BD50
:104B2000988BFE1F80B485B000AF03463960FB80D0
:104B30001346BB80FB8808330C4A1344BB60002338
:104B4000FB810AE0FB893A681344FA89B9680A4490
:104B500012781A70FB890133FB81FA89BB889A426B
:104B6000F0D31437BD465DF8047B7047988BFE1F69
:104B700080B582B000AF0023FB71224B9B6803F528
:104B8000405304339B033B601E4B1A683B689A42B8
:104B900011D11D4B5B68002B0DD01A4B5B6803F4E1
:104BA00040439B0B174A9360164B0F22DA6000F0CC
:104BB000D9F80346FB71FB79002B1DD1124B5B68C2
:104BC0000133114A536000F039F80346FB71FB7959
:104BD000002B03D10B4B1B680A4A5360094B1B681F
:104BE00003F58053074A1360064B1B68074A93423C
:104BF00002D9044B064A1A60FB7918460837BD46AD
:104C000080BD00BF208AFE1F988BFE1FFFFF010C96
:104C10000000010C80B483B000AF0023FB71064B91
:104C20005B68002B01D10123FB71FB7918460C371F
:104C3000BD465DF8047B7047208AFE1F80B584B0B6
:104C400000AF0023FB70184B1B68FB60174BBB6069
:104C5000174800F0C7F80246144B1A6000237B6027
:104C60001AE0FBF7E3FAF868B968FBF7F3FAFBF729
:104C7000E3FA02460F4B1340002B02D00323FB70D4
:104C80000DE0BB6803F58073BB60FB6803F58073C0
:104C9000FB607B6801337B607B680F2BE1D9FB787D
:104CA00018461037BD4680BD208AFE1F988BFE1F18
:104CB0009C8BFE1F0001008080B58AB000AF786039
:104CC0007B6803F5405304339B03FB61FB6903F5E9
:104CD00040537B6200233B627B6ABB61BB695B68BC
:104CE0007B617B69002B2ED01C4BDA687B6801212D
:104CF00001FA03F31343194AD3603B6A002B03D133
:104D00007B6A03F580533B62BB691B683B61BB69EF
:104D10000433184600F066F8F860FA683B699A4276
:104D200011D10F4B5A687B699A420CD20C4A7B69AD
:104D300053600A4A7B689360084A7B6A5360074A5B
:104D40003B6A136007E07B6AA3F580537B627A6A53
:104D5000FB699A42C0D22837BD4680BD208AFE1F1B
:104D6000988BFE1F80B584B000AF0023FB72002338
:104D7000FB601B4B9A68FB689A4226D0184BDA6896
:104D8000FB6822FA03F303F00103002B1DD0FB683C
:104D900003F5405304339B037B60FBF747FA7B68C2
:104DA0001846FBF78BFAFBF747FA0346202B02D095
:104DB0000423FB720FE00A4BDA68FB68012101FA59
:104DC00003F3DB431340064AD360FB680133FB6007
:104DD000FB68032BCDD9FB7A18461037BD4680BD42
:104DE000208AFE1F80B584B000AF7860084800219B
:104DF000FFF7EEFD07F10C030548796840F6FC72F9
:104E0000FDF716FAFB6818461037BD4680BD00BF97
:104E100030A3020880B485B000AF0F4B5B68BB6065
:104E20000E4B7B600023FB600CE0FB689B007A6804
:104E30001344FA689200B9680A4412681A60FB6861
:104E40000133FB60FB68B3F5806FEED31437BD46CA
:104E50005DF8047B704700BF208AFE1F988BFE1F01
:104E600080B400AF044BDB6803F4E0631B0A184610
:104E7000BD465DF8047B704700ED00E080B483B070
:104E800000AF0346FB7197F90730002B0BDB084995
:104E900097F907305B09FA7902F01F02012000FA46
:104EA00002F241F823200C37BD465DF8047B7047C1
:104EB00000E100E080B483B000AF0346FB7197F9D6
:104EC0000730002B10DB0B4997F907305B09FA79A3
:104ED00002F01F02012000FA02F2203341F82320E1
:104EE000BFF34F8FBFF36F8F0C37BD465DF8047B68
:104EF000704700BF00E100E080B483B000AF03461C
:104F0000FB7197F90730002B0CDB094997F9073043
:104F10005B09FA7902F01F02012000FA02F2603305
:104F200041F823200C37BD465DF8047B704700BF75
:104F300000E100E080B483B000AF03463960FB714C
:104F400097F90730002B0ADB0D4997F907303A68CB
:104F5000D2B29200D2B20B4483F800230AE009498E
:104F6000FB7903F00F03043B3A68D2B29200D2B24D
:104F70000B441A760C37BD465DF8047B704700BFC2
:104F800000E100E000ED00E080B489B000AFF8601F
:104F9000B9607A60FB6803F00703FB61FB69C3F14A
:104FA0000703062B28BF0623BB61FB690633062BCC
:104FB00002D9FB69013B00E000237B61BB69012250
:104FC00002FA03F35A1EBB681A407B699A407B6958
:104FD000012101FA03F3591E7B680B401343184665
:104FE0002437BD465DF8047B704700BF80B483B0B2
:104FF00000AF78603960044A3B6813600C37BD46E7
:105000005DF8047B704700BF4040005080B483B01F
:1050100000AF78607B681B687A681268126822F4B7
:1050200080121A600C37BD465DF8047B704700BFE4
:1050300080B483B000AF78600B467B8013463B8022
:105040007B681B687A681268126822F490417A883B
:1050500011433A880A431A600C37BD465DF8047B59
:10506000704700BF80B483B000AF78607B681A6976
:105070007B6893F827305B0113441B68DB0FDBB2BE
:1050800018460C37BD465DF8047B704780B483B08A
:1050900000AF78607B685A697B6893F826305B01C3
:1050A00013441B68DB0FDBB218460C37BD465DF8B6
:1050B000047B704780B483B000AF78607B68196868
:1050C0007B681B6803F5805318331B6843F00202AA
:1050D00001F5805318331A607B681B687A68126880
:1050E000126842F004021A600C37BD465DF8047B7A
:1050F000704700BF80B483B000AF78607B681B68E6
:105100007A681268126822F004021A607B681968D3
:105110007B681B6803F5805318331B6823F0020279
:1051200001F5805318331A600C37BD465DF8047BD7
:10513000704700BF80B483B000AF78607B681968A7
:105140007B681B6803F5805318331B6843F40052D7
:1051500001F5805318331A607B681B687A681268FF
:10516000126842F008021A600C37BD465DF8047BF5
:10517000704700BF80B483B000AF78607B681B6865
:105180007A681268126822F008021A607B6819684F
:105190007B681B6803F5805318331B6823F40052A7
:1051A00001F5805318331A600C37BD465DF8047B57
:1051B000704700BF80B483B000AF78607B681B6825
:1051C00003F58053143302221A607B681B6803F5D1
:1051D0008053043300221A600C37BD465DF8047B0F
:1051E000704700BF80B483B000AF78607B681B68F5
:1051F00003F58053143380221A607B681B6803F523
:105200008053083300221A600C37BD465DF8047BDA
:10521000704700BF80B483B000AF78607B685A6984
:105220007B6893F826305B0113449B6818460C3763
:10523000BD465DF8047B704780B483B000AF7860F2
:105240007B681A697B6893F827305B0113449B687D
:1052500018460C37BD465DF8047B704780B483B0B8
:1052600000AF786039607B685A697B6893F82630B4
:105270005B0113443A685A600C37BD465DF8047B05
:10528000704700BF80B586B000AF786000237B61B7
:105290007B6893F82D3003F01003002B5DD0384865
:1052A0000021384A03F0F2FC38613B69002B04D03E
:1052B0003B69DBB2184600F063FA3148002103F085
:1052C000ABFD0346FB737B6901337B61FB7B83F0A2
:1052D0000103DBB2002B03D07B692B4A9342ECD94C
:1052E000FB7B83F00103DBB2002B02D0042000F033
:1052F00047FA2348002103F057FD0346BB812048AD
:10530000002103F06DFD03467B81BA897B891C482F
:1053100011461A46FFF78CFE19484021FCF766FE3D
:10532000FFF79EFD034618463F210022FFF72CFEA3
:1053300003466C201946FFF7FDFD6C20FFF7DCFDEE
:105340006C20FFF79BFD0E48FFF7F4FE0C48FFF7BB
:10535000B1FE0E4802F09CFC0FE009484021FCF72A
:105360007DFE6C20FFF7A6FD0548FFF703FF04480C
:10537000FFF7C0FE054802F0C1FC1837BD4680BDEE
:10538000308AFE1F3CA30208FEFF0F00608AFE1F4A
:1053900080B582B000AF78601248002103F0EAFCCB
:1053A0000346002B0AD1104B93F82D3003F0100365
:1053B000002B0DD00C4802F001FD09E00A4B93F8D8
:1053C0002D3003F01003002B02D1074802F0B8FC87
:1053D0004FF47A700549002203F0A2F80837BD4661
:1053E00080BD00BF308AFE1F608AFE1F91530208F5
:1053F00080B586B000AF78604FF48033FB60002347
:105400003B7207F10803474809211A46FAF76EFF75
:1054100000233B7207F10803434804211A46FAF7B8
:1054200065FF00233B7207F108033F4802211A463B
:10543000FAF75CFF00233B7207F108033A480321A7
:105440001A46FAF753FF00233B7488233B7207F197
:105450000803354805211A46FAF748FF00233B7434
:1054600088233B7207F108032F4808211A46FAF7F0
:105470003DFF00233B7488233B7207F108032A4851
:1054800009211A46FAF732FF00233B7207F108039D
:10549000244808211A46FAF729FF00233B74882381
:1054A0003B7207F10803204807211A46FAF71EFF4E
:1054B00000233B7207F108031B4800211A46FAF744
:1054C00015FF194800210122FCF7E2FEFB7D43F0A5
:1054D0000403FB753B7D6FF301033B753B7D6FF36D
:1054E00083033B757B7D022262F301037B757B7D29
:1054F000022262F383037B757B7D6FF387137B75D9
:10550000BB7D012262F38713BB7508487969FFF7F9
:105510006DFD0648FCF780FB0448FFF777FD183760
:10552000BD4680BD008F024800820248308AFE1FBF
:1055300080B586B000AF7860396000233B613B687E
:105540001B8940F2F452934201D9FE2340E02348E4
:10555000FFF79CFD0346002B04D02048FFF72AFEEE
:10556000FE2335E01D48FFF755FEF86038686FF000
:10557000010102F0A5FD3B687B6117E07B695A6879
:105580007B695B89F86811461A4600F00BF97B6964
:105590005B891A463B6913443B617B695B891A4608
:1055A000FB681344FB607B691B687B617B69002B94
:1055B000E4D13868022102F083FD08483969FFF719
:1055C0004DFE0648FCF7D0FD0448FFF7F3FD00232D
:1055D0005BB218461837BD4680BD00BF308AFE1F3B
:1055E00080B584B000AF0023FB602E48FFF73AFD82
:1055F000034683F00103DBB2002B4DD02948FCF7B2
:10560000E5FB78607B68002B40D07B6840F2F45269
:1056100093423BD87B6802337B607B689BB203205C
:105620001946032202F0FAFBF860FB68002B29D030
:10563000F8686FF0010102F043FD1A48FFF7FCFD26
:10564000386000237B60FB68BB6014E0BB6859686E
:105650003A687B681A44BB685B89084611461A465B
:1056600000F0A0F8BB685B891A467B6813447B6036
:10567000BB681B68BB60BB68002BE7D1F8680221E0
:1056800002F01EFD0748FCF73FFD02E00548FCF76D
:105690003BFD0448FFF7A6FDFB6818461037BD46E2
:1056A00080BD00BF308AFE1F80B586B000AF786035
:1056B00000237B617B683B61FFF792FF786124E008
:1056C0007B695B68FB60FB68DB899BB2184601F075
:1056D00027FF0346B3F5006F03D040F6060293425E
:1056E0000CD13B691B697869396998470346002BDF
:1056F00003D0786902F056FD04E003E0786902F017
:1057000051FD00BFFFF76CFF78617B69002BD7D19B
:105710001837BD4680BD00BF80B582B000AF78604D
:105720007B680C4A5A617B680B4A9A617868FFF77C
:105730005FFE4FF47A700949002202F0F1FE7868AA
:10574000074902F05BFB00235BB218460837BD46F1
:1057500080BD00BF215F0208315502089153020845
:105760008552020880B500AF03484021FCF79CFC3D
:105770000248FFF799FF80BD308AFE1F608AFE1F36
:1057800080B483B000AF0346FB71FB79032B04D0D8
:10579000042B03D0022B02D002E002E001E000E083
:1057A00000BFFEE7130911D051F804CB40F804CB39
:1057B00051F804CB40F804CB51F804CB40F804CBAB
:1057C00051F804CB40F804CB013BEDD112F00F03AC
